{
  "_format": "hh-sol-artifact-1",
  "contractName": "SubscriptionNFT",
  "sourceName": "contracts/SubscriptionNFT.sol",
  "abi": [
    {
      "inputs": [],
      "stateMutability": "nonpayable",
      "type": "constructor"
    },
    {
      "anonymous": false,
      "inputs": [
        {
          "indexed": true,
          "internalType": "address",
          "name": "owner",
          "type": "address"
        },
        {
          "indexed": true,
          "internalType": "address",
          "name": "approved",
          "type": "address"
        },
        {
          "indexed": true,
          "internalType": "uint256",
          "name": "tokenId",
          "type": "uint256"
        }
      ],
      "name": "Approval",
      "type": "event"
    },
    {
      "anonymous": false,
      "inputs": [
        {
          "indexed": true,
          "internalType": "address",
          "name": "owner",
          "type": "address"
        },
        {
          "indexed": true,
          "internalType": "address",
          "name": "operator",
          "type": "address"
        },
        {
          "indexed": false,
          "internalType": "bool",
          "name": "approved",
          "type": "bool"
        }
      ],
      "name": "ApprovalForAll",
      "type": "event"
    },
    {
      "anonymous": false,
      "inputs": [
        {
          "indexed": true,
          "internalType": "address",
          "name": "from",
          "type": "address"
        },
        {
          "indexed": true,
          "internalType": "address",
          "name": "to",
          "type": "address"
        },
        {
          "indexed": true,
          "internalType": "uint256",
          "name": "tokenId",
          "type": "uint256"
        }
      ],
      "name": "Transfer",
      "type": "event"
    },
    {
      "inputs": [
        {
          "internalType": "address",
          "name": "to",
          "type": "address"
        },
        {
          "internalType": "uint256",
          "name": "tokenId",
          "type": "uint256"
        }
      ],
      "name": "approve",
      "outputs": [],
      "stateMutability": "nonpayable",
      "type": "function"
    },
    {
      "inputs": [
        {
          "internalType": "address",
          "name": "owner",
          "type": "address"
        }
      ],
      "name": "balanceOf",
      "outputs": [
        {
          "internalType": "uint256",
          "name": "",
          "type": "uint256"
        }
      ],
      "stateMutability": "view",
      "type": "function"
    },
    {
      "inputs": [],
      "name": "dummyData",
      "outputs": [
        {
          "internalType": "bool",
          "name": "",
          "type": "bool"
        }
      ],
      "stateMutability": "nonpayable",
      "type": "function"
    },
    {
      "inputs": [
        {
          "internalType": "uint256",
          "name": "tokenId",
          "type": "uint256"
        }
      ],
      "name": "getApproved",
      "outputs": [
        {
          "internalType": "address",
          "name": "",
          "type": "address"
        }
      ],
      "stateMutability": "view",
      "type": "function"
    },
    {
      "inputs": [
        {
          "internalType": "uint256",
          "name": "_templateId",
          "type": "uint256"
        }
      ],
      "name": "getTiers",
      "outputs": [
        {
          "components": [
            {
              "internalType": "string",
              "name": "accessTier",
              "type": "string"
            },
            {
              "internalType": "uint256",
              "name": "price",
              "type": "uint256"
            },
            {
              "internalType": "uint256",
              "name": "term",
              "type": "uint256"
            }
          ],
          "internalType": "struct SubscriptionNFT.SubscriptionOption[]",
          "name": "",
          "type": "tuple[]"
        }
      ],
      "stateMutability": "view",
      "type": "function"
    },
    {
      "inputs": [
        {
          "internalType": "address",
          "name": "owner",
          "type": "address"
        },
        {
          "internalType": "address",
          "name": "operator",
          "type": "address"
        }
      ],
      "name": "isApprovedForAll",
      "outputs": [
        {
          "internalType": "bool",
          "name": "",
          "type": "bool"
        }
      ],
      "stateMutability": "view",
      "type": "function"
    },
    {
      "inputs": [
        {
          "internalType": "address",
          "name": "recipient",
          "type": "address"
        },
        {
          "internalType": "uint256",
          "name": "subscriptionTemplateId",
          "type": "uint256"
        },
        {
          "internalType": "uint256",
          "name": "subscriptionOptionSelectionIndex",
          "type": "uint256"
        }
      ],
      "name": "issueSubscriptionNFT",
      "outputs": [
        {
          "internalType": "uint256",
          "name": "",
          "type": "uint256"
        }
      ],
      "stateMutability": "nonpayable",
      "type": "function"
    },
    {
      "inputs": [],
      "name": "name",
      "outputs": [
        {
          "internalType": "string",
          "name": "",
          "type": "string"
        }
      ],
      "stateMutability": "view",
      "type": "function"
    },
    {
      "inputs": [
        {
          "internalType": "uint256",
          "name": "tokenId",
          "type": "uint256"
        }
      ],
      "name": "ownerOf",
      "outputs": [
        {
          "internalType": "address",
          "name": "",
          "type": "address"
        }
      ],
      "stateMutability": "view",
      "type": "function"
    },
    {
      "inputs": [
        {
          "internalType": "address",
          "name": "from",
          "type": "address"
        },
        {
          "internalType": "address",
          "name": "to",
          "type": "address"
        },
        {
          "internalType": "uint256",
          "name": "tokenId",
          "type": "uint256"
        }
      ],
      "name": "safeTransferFrom",
      "outputs": [],
      "stateMutability": "nonpayable",
      "type": "function"
    },
    {
      "inputs": [
        {
          "internalType": "address",
          "name": "from",
          "type": "address"
        },
        {
          "internalType": "address",
          "name": "to",
          "type": "address"
        },
        {
          "internalType": "uint256",
          "name": "tokenId",
          "type": "uint256"
        },
        {
          "internalType": "bytes",
          "name": "_data",
          "type": "bytes"
        }
      ],
      "name": "safeTransferFrom",
      "outputs": [],
      "stateMutability": "nonpayable",
      "type": "function"
    },
    {
      "inputs": [
        {
          "internalType": "address",
          "name": "operator",
          "type": "address"
        },
        {
          "internalType": "bool",
          "name": "approved",
          "type": "bool"
        }
      ],
      "name": "setApprovalForAll",
      "outputs": [],
      "stateMutability": "nonpayable",
      "type": "function"
    },
    {
      "inputs": [
        {
          "internalType": "bytes4",
          "name": "interfaceId",
          "type": "bytes4"
        }
      ],
      "name": "supportsInterface",
      "outputs": [
        {
          "internalType": "bool",
          "name": "",
          "type": "bool"
        }
      ],
      "stateMutability": "view",
      "type": "function"
    },
    {
      "inputs": [],
      "name": "symbol",
      "outputs": [
        {
          "internalType": "string",
          "name": "",
          "type": "string"
        }
      ],
      "stateMutability": "view",
      "type": "function"
    },
    {
      "inputs": [
        {
          "internalType": "uint256",
          "name": "tokenId",
          "type": "uint256"
        }
      ],
      "name": "tokenURI",
      "outputs": [
        {
          "internalType": "string",
          "name": "",
          "type": "string"
        }
      ],
      "stateMutability": "view",
      "type": "function"
    },
    {
      "inputs": [
        {
          "internalType": "address",
          "name": "from",
          "type": "address"
        },
        {
          "internalType": "address",
          "name": "to",
          "type": "address"
        },
        {
          "internalType": "uint256",
          "name": "tokenId",
          "type": "uint256"
        }
      ],
      "name": "transferFrom",
      "outputs": [],
      "stateMutability": "nonpayable",
      "type": "function"
    }
  ],
  "bytecode": "0x60806040523480156200001157600080fd5b506040518060400160405280600f81526020017f537562736372697074696f6e4e465400000000000000000000000000000000008152506040518060400160405280600381526020017f5355420000000000000000000000000000000000000000000000000000000000815250816000908051906020019062000096929190620000b8565b508060019080519060200190620000af929190620000b8565b505050620001cd565b828054620000c69062000168565b90600052602060002090601f016020900481019282620000ea576000855562000136565b82601f106200010557805160ff191683800117855562000136565b8280016001018555821562000136579182015b828111156200013557825182559160200191906001019062000118565b5b50905062000145919062000149565b5090565b5b80821115620001645760008160009055506001016200014a565b5090565b600060028204905060018216806200018157607f821691505b602082108114156200019857620001976200019e565b5b50919050565b7f4e487b7100000000000000000000000000000000000000000000000000000000600052602260045260246000fd5b612f2d80620001dd6000396000f3fe608060405234801561001057600080fd5b50600436106101005760003560e01c806370a0823111610097578063a9220ec111610066578063a9220ec1146102bf578063b88d4fde146102ef578063c87b56dd1461030b578063e985e9c51461033b57610100565b806370a082311461023757806372496b691461026757806395d89b4114610285578063a22cb465146102a357610100565b8063095ea7b3116100d3578063095ea7b3146101b357806323b872dd146101cf57806342842e0e146101eb5780636352211e1461020757610100565b80630172e3131461010557806301ffc9a71461013557806306fdde0314610165578063081812fc14610183575b600080fd5b61011f600480360381019061011a9190611ee7565b61036b565b60405161012c9190612679565b60405180910390f35b61014f600480360381019061014a9190611f36565b610520565b60405161015c919061245c565b60405180910390f35b61016d610602565b60405161017a9190612477565b60405180910390f35b61019d60048036038101906101989190611f88565b610694565b6040516101aa91906123d3565b60405180910390f35b6101cd60048036038101906101c89190611eab565b610719565b005b6101e960048036038101906101e49190611da5565b610831565b005b61020560048036038101906102009190611da5565b610891565b005b610221600480360381019061021c9190611f88565b6108b1565b60405161022e91906123d3565b60405180910390f35b610251600480360381019061024c9190611d40565b610963565b60405161025e9190612679565b60405180910390f35b61026f610a1b565b60405161027c919061245c565b60405180910390f35b61028d610bf1565b60405161029a9190612477565b60405180910390f35b6102bd60048036038101906102b89190611e6f565b610c83565b005b6102d960048036038101906102d49190611f88565b610c99565b6040516102e6919061243a565b60405180910390f35b61030960048036038101906103049190611df4565b610e04565b005b61032560048036038101906103209190611f88565b610e66565b6040516103329190612477565b60405180910390f35b61035560048036038101906103509190611d69565b610f0d565b604051610362919061245c565b60405180910390f35b60006103776006610fa1565b60006103836006610fb7565b905061038f8582610fc5565b60006009600086815260200190815260200160002060010184815481106103df577f4e487b7100000000000000000000000000000000000000000000000000000000600052603260045260246000fd5b9060005260206000209060030201604051806060016040529081600082018054610408906128e8565b80601f0160208091040260200160405190810160405280929190818152602001828054610434906128e8565b80156104815780601f1061045657610100808354040283529160200191610481565b820191906000526020600020905b81548152906001019060200180831161046457829003601f168201915b5050505050815260200160018201548152602001600282015481525050905084600860008481526020019081526020016000206000018190555080600001516008600084815260200190815260200160002060010190805190602001906104e9929190611bcc565b508060400151426104fa9190612777565b600860008481526020019081526020016000206002018190555081925050509392505050565b60007f80ac58cd000000000000000000000000000000000000000000000000000000007bffffffffffffffffffffffffffffffffffffffffffffffffffffffff1916827bffffffffffffffffffffffffffffffffffffffffffffffffffffffff191614806105eb57507f5b5e139f000000000000000000000000000000000000000000000000000000007bffffffffffffffffffffffffffffffffffffffffffffffffffffffff1916827bffffffffffffffffffffffffffffffffffffffffffffffffffffffff1916145b806105fb57506105fa8261119f565b5b9050919050565b606060008054610611906128e8565b80601f016020809104026020016040519081016040528092919081815260200182805461063d906128e8565b801561068a5780601f1061065f5761010080835404028352916020019161068a565b820191906000526020600020905b81548152906001019060200180831161066d57829003601f168201915b5050505050905090565b600061069f82611209565b6106de576040517f08c379a00000000000000000000000000000000000000000000000000000000081526004016106d5906125d9565b60405180910390fd5b6004600083815260200190815260200160002060009054906101000a900473ffffffffffffffffffffffffffffffffffffffff169050919050565b6000610724826108b1565b90508073ffffffffffffffffffffffffffffffffffffffff168373ffffffffffffffffffffffffffffffffffffffff161415610795576040517f08c379a000000000000000000000000000000000000000000000000000000000815260040161078c90612619565b60405180910390fd5b8073ffffffffffffffffffffffffffffffffffffffff166107b4611275565b73ffffffffffffffffffffffffffffffffffffffff1614806107e357506107e2816107dd611275565b610f0d565b5b610822576040517f08c379a000000000000000000000000000000000000000000000000000000000815260040161081990612559565b60405180910390fd5b61082c838361127d565b505050565b61084261083c611275565b82611336565b610881576040517f08c379a000000000000000000000000000000000000000000000000000000000815260040161087890612639565b60405180910390fd5b61088c838383611414565b505050565b6108ac83838360405180602001604052806000815250610e04565b505050565b6000806002600084815260200190815260200160002060009054906101000a900473ffffffffffffffffffffffffffffffffffffffff169050600073ffffffffffffffffffffffffffffffffffffffff168173ffffffffffffffffffffffffffffffffffffffff16141561095a576040517f08c379a000000000000000000000000000000000000000000000000000000000815260040161095190612599565b60405180910390fd5b80915050919050565b60008073ffffffffffffffffffffffffffffffffffffffff168273ffffffffffffffffffffffffffffffffffffffff1614156109d4576040517f08c379a00000000000000000000000000000000000000000000000000000000081526004016109cb90612579565b60405180910390fd5b600360008373ffffffffffffffffffffffffffffffffffffffff1673ffffffffffffffffffffffffffffffffffffffff168152602001908152602001600020549050919050565b600080610a286007610fb7565b90506000600960008381526020019081526020016000209050338160000160006101000a81548173ffffffffffffffffffffffffffffffffffffffff021916908373ffffffffffffffffffffffffffffffffffffffff1602179055508060010160405180606001604052806040518060400160405280600581526020017f62617369630000000000000000000000000000000000000000000000000000008152508152602001600a8152602001601e81525090806001815401808255809150506001900390600052602060002090600302016000909190919091506000820151816000019080519060200190610b1f929190611bcc565b50602082015181600101556040820151816002015550508060010160405180606001604052806040518060400160405280600381526020017f70726f0000000000000000000000000000000000000000000000000000000000815250815260200160148152602001601e81525090806001815401808255809150506001900390600052602060002090600302016000909190919091506000820151816000019080519060200190610bd1929190611bcc565b506020820151816001015560408201518160020155505060019250505090565b606060018054610c00906128e8565b80601f0160208091040260200160405190810160405280929190818152602001828054610c2c906128e8565b8015610c795780601f10610c4e57610100808354040283529160200191610c79565b820191906000526020600020905b815481529060010190602001808311610c5c57829003601f168201915b5050505050905090565b610c95610c8e611275565b838361167b565b5050565b606060006009600084815260200190815260200160002090506000816001018054905011610cfc576040517f08c379a0000000000000000000000000000000000000000000000000000000008152600401610cf390612659565b60405180910390fd5b80600101805480602002602001604051908101604052809291908181526020016000905b82821015610df85783829060005260206000209060030201604051806060016040529081600082018054610d53906128e8565b80601f0160208091040260200160405190810160405280929190818152602001828054610d7f906128e8565b8015610dcc5780601f10610da157610100808354040283529160200191610dcc565b820191906000526020600020905b815481529060010190602001808311610daf57829003601f168201915b505050505081526020016001820154815260200160028201548152505081526020019060010190610d20565b50505050915050919050565b610e15610e0f611275565b83611336565b610e54576040517f08c379a0000000000000000000000000000000000000000000000000000000008152600401610e4b90612639565b60405180910390fd5b610e60848484846117e8565b50505050565b6060610e7182611209565b610eb0576040517f08c379a0000000000000000000000000000000000000000000000000000000008152600401610ea7906125f9565b60405180910390fd5b6000610eba611844565b90506000815111610eda5760405180602001604052806000815250610f05565b80610ee48461185b565b604051602001610ef59291906123af565b6040516020818303038152906040525b915050919050565b6000600560008473ffffffffffffffffffffffffffffffffffffffff1673ffffffffffffffffffffffffffffffffffffffff16815260200190815260200160002060008373ffffffffffffffffffffffffffffffffffffffff1673ffffffffffffffffffffffffffffffffffffffff16815260200190815260200160002060009054906101000a900460ff16905092915050565b6001816000016000828254019250508190555050565b600081600001549050919050565b600073ffffffffffffffffffffffffffffffffffffffff168273ffffffffffffffffffffffffffffffffffffffff161415611035576040517f08c379a000000000000000000000000000000000000000000000000000000000815260040161102c906125b9565b60405180910390fd5b61103e81611209565b1561107e576040517f08c379a0000000000000000000000000000000000000000000000000000000008152600401611075906124d9565b60405180910390fd5b61108a60008383611a08565b6001600360008473ffffffffffffffffffffffffffffffffffffffff1673ffffffffffffffffffffffffffffffffffffffff16815260200190815260200160002060008282546110da9190612777565b92505081905550816002600083815260200190815260200160002060006101000a81548173ffffffffffffffffffffffffffffffffffffffff021916908373ffffffffffffffffffffffffffffffffffffffff160217905550808273ffffffffffffffffffffffffffffffffffffffff16600073ffffffffffffffffffffffffffffffffffffffff167fddf252ad1be2c89b69c2b068fc378daa952ba7f163c4a11628f55a4df523b3ef60405160405180910390a461119b60008383611a0d565b5050565b60007f01ffc9a7000000000000000000000000000000000000000000000000000000007bffffffffffffffffffffffffffffffffffffffffffffffffffffffff1916827bffffffffffffffffffffffffffffffffffffffffffffffffffffffff1916149050919050565b60008073ffffffffffffffffffffffffffffffffffffffff166002600084815260200190815260200160002060009054906101000a900473ffffffffffffffffffffffffffffffffffffffff1673ffffffffffffffffffffffffffffffffffffffff1614159050919050565b600033905090565b816004600083815260200190815260200160002060006101000a81548173ffffffffffffffffffffffffffffffffffffffff021916908373ffffffffffffffffffffffffffffffffffffffff160217905550808273ffffffffffffffffffffffffffffffffffffffff166112f0836108b1565b73ffffffffffffffffffffffffffffffffffffffff167f8c5be1e5ebec7d5bd14f71427d1e84f3dd0314c0f7b2291e5b200ac8c7c3b92560405160405180910390a45050565b600061134182611209565b611380576040517f08c379a000000000000000000000000000000000000000000000000000000000815260040161137790612539565b60405180910390fd5b600061138b836108b1565b90508073ffffffffffffffffffffffffffffffffffffffff168473ffffffffffffffffffffffffffffffffffffffff1614806113cd57506113cc8185610f0d565b5b8061140b57508373ffffffffffffffffffffffffffffffffffffffff166113f384610694565b73ffffffffffffffffffffffffffffffffffffffff16145b91505092915050565b8273ffffffffffffffffffffffffffffffffffffffff16611434826108b1565b73ffffffffffffffffffffffffffffffffffffffff161461148a576040517f08c379a0000000000000000000000000000000000000000000000000000000008152600401611481906124b9565b60405180910390fd5b600073ffffffffffffffffffffffffffffffffffffffff168273ffffffffffffffffffffffffffffffffffffffff1614156114fa576040517f08c379a00000000000000000000000000000000000000000000000000000000081526004016114f1906124f9565b60405180910390fd5b611505838383611a08565b61151060008261127d565b6001600360008573ffffffffffffffffffffffffffffffffffffffff1673ffffffffffffffffffffffffffffffffffffffff168152602001908152602001600020600082825461156091906127fe565b925050819055506001600360008473ffffffffffffffffffffffffffffffffffffffff1673ffffffffffffffffffffffffffffffffffffffff16815260200190815260200160002060008282546115b79190612777565b92505081905550816002600083815260200190815260200160002060006101000a81548173ffffffffffffffffffffffffffffffffffffffff021916908373ffffffffffffffffffffffffffffffffffffffff160217905550808273ffffffffffffffffffffffffffffffffffffffff168473ffffffffffffffffffffffffffffffffffffffff167fddf252ad1be2c89b69c2b068fc378daa952ba7f163c4a11628f55a4df523b3ef60405160405180910390a4611676838383611a0d565b505050565b8173ffffffffffffffffffffffffffffffffffffffff168373ffffffffffffffffffffffffffffffffffffffff1614156116ea576040517f08c379a00000000000000000000000000000000000000000000000000000000081526004016116e190612519565b60405180910390fd5b80600560008573ffffffffffffffffffffffffffffffffffffffff1673ffffffffffffffffffffffffffffffffffffffff16815260200190815260200160002060008473ffffffffffffffffffffffffffffffffffffffff1673ffffffffffffffffffffffffffffffffffffffff16815260200190815260200160002060006101000a81548160ff0219169083151502179055508173ffffffffffffffffffffffffffffffffffffffff168373ffffffffffffffffffffffffffffffffffffffff167f17307eab39ab6107e8899845ad3d59bd9653f200f220920489ca2b5937696c31836040516117db919061245c565b60405180910390a3505050565b6117f3848484611414565b6117ff84848484611a12565b61183e576040517f08c379a000000000000000000000000000000000000000000000000000000000815260040161183590612499565b60405180910390fd5b50505050565b606060405180602001604052806000815250905090565b606060008214156118a3576040518060400160405280600181526020017f30000000000000000000000000000000000000000000000000000000000000008152509050611a03565b600082905060005b600082146118d55780806118be9061294b565b915050600a826118ce91906127cd565b91506118ab565b60008167ffffffffffffffff811115611917577f4e487b7100000000000000000000000000000000000000000000000000000000600052604160045260246000fd5b6040519080825280601f01601f1916602001820160405280156119495781602001600182028036833780820191505090505b5090505b600085146119fc5760018261196291906127fe565b9150600a856119719190612994565b603061197d9190612777565b60f81b8183815181106119b9577f4e487b7100000000000000000000000000000000000000000000000000000000600052603260045260246000fd5b60200101907effffffffffffffffffffffffffffffffffffffffffffffffffffffffffffff1916908160001a905350600a856119f591906127cd565b945061194d565b8093505050505b919050565b505050565b505050565b6000611a338473ffffffffffffffffffffffffffffffffffffffff16611ba9565b15611b9c578373ffffffffffffffffffffffffffffffffffffffff1663150b7a02611a5c611275565b8786866040518563ffffffff1660e01b8152600401611a7e94939291906123ee565b602060405180830381600087803b158015611a9857600080fd5b505af1925050508015611ac957506040513d601f19601f82011682018060405250810190611ac69190611f5f565b60015b611b4c573d8060008114611af9576040519150601f19603f3d011682016040523d82523d6000602084013e611afe565b606091505b50600081511415611b44576040517f08c379a0000000000000000000000000000000000000000000000000000000008152600401611b3b90612499565b60405180910390fd5b805181602001fd5b63150b7a0260e01b7bffffffffffffffffffffffffffffffffffffffffffffffffffffffff1916817bffffffffffffffffffffffffffffffffffffffffffffffffffffffff191614915050611ba1565b600190505b949350505050565b6000808273ffffffffffffffffffffffffffffffffffffffff163b119050919050565b828054611bd8906128e8565b90600052602060002090601f016020900481019282611bfa5760008555611c41565b82601f10611c1357805160ff1916838001178555611c41565b82800160010185558215611c41579182015b82811115611c40578251825591602001919060010190611c25565b5b509050611c4e9190611c52565b5090565b5b80821115611c6b576000816000905550600101611c53565b5090565b6000611c82611c7d846126b9565b612694565b905082815260208101848484011115611c9a57600080fd5b611ca58482856128a6565b509392505050565b600081359050611cbc81612e9b565b92915050565b600081359050611cd181612eb2565b92915050565b600081359050611ce681612ec9565b92915050565b600081519050611cfb81612ec9565b92915050565b600082601f830112611d1257600080fd5b8135611d22848260208601611c6f565b91505092915050565b600081359050611d3a81612ee0565b92915050565b600060208284031215611d5257600080fd5b6000611d6084828501611cad565b91505092915050565b60008060408385031215611d7c57600080fd5b6000611d8a85828601611cad565b9250506020611d9b85828601611cad565b9150509250929050565b600080600060608486031215611dba57600080fd5b6000611dc886828701611cad565b9350506020611dd986828701611cad565b9250506040611dea86828701611d2b565b9150509250925092565b60008060008060808587031215611e0a57600080fd5b6000611e1887828801611cad565b9450506020611e2987828801611cad565b9350506040611e3a87828801611d2b565b925050606085013567ffffffffffffffff811115611e5757600080fd5b611e6387828801611d01565b91505092959194509250565b60008060408385031215611e8257600080fd5b6000611e9085828601611cad565b9250506020611ea185828601611cc2565b9150509250929050565b60008060408385031215611ebe57600080fd5b6000611ecc85828601611cad565b9250506020611edd85828601611d2b565b9150509250929050565b600080600060608486031215611efc57600080fd5b6000611f0a86828701611cad565b9350506020611f1b86828701611d2b565b9250506040611f2c86828701611d2b565b9150509250925092565b600060208284031215611f4857600080fd5b6000611f5684828501611cd7565b91505092915050565b600060208284031215611f7157600080fd5b6000611f7f84828501611cec565b91505092915050565b600060208284031215611f9a57600080fd5b6000611fa884828501611d2b565b91505092915050565b6000611fbd8383612341565b905092915050565b611fce81612832565b82525050565b6000611fdf826126fa565b611fe98185612728565b935083602082028501611ffb856126ea565b8060005b8581101561203757848403895281516120188582611fb1565b94506120238361271b565b925060208a01995050600181019050611fff565b50829750879550505050505092915050565b61205281612844565b82525050565b600061206382612705565b61206d8185612739565b935061207d8185602086016128b5565b61208681612a81565b840191505092915050565b600061209c82612710565b6120a6818561274a565b93506120b68185602086016128b5565b6120bf81612a81565b840191505092915050565b60006120d582612710565b6120df818561275b565b93506120ef8185602086016128b5565b6120f881612a81565b840191505092915050565b600061210e82612710565b612118818561276c565b93506121288185602086016128b5565b80840191505092915050565b600061214160328361275b565b915061214c82612a92565b604082019050919050565b600061216460258361275b565b915061216f82612ae1565b604082019050919050565b6000612187601c8361275b565b915061219282612b30565b602082019050919050565b60006121aa60248361275b565b91506121b582612b59565b604082019050919050565b60006121cd60198361275b565b91506121d882612ba8565b602082019050919050565b60006121f0602c8361275b565b91506121fb82612bd1565b604082019050919050565b600061221360388361275b565b915061221e82612c20565b604082019050919050565b6000612236602a8361275b565b915061224182612c6f565b604082019050919050565b600061225960298361275b565b915061226482612cbe565b604082019050919050565b600061227c60208361275b565b915061228782612d0d565b602082019050919050565b600061229f602c8361275b565b91506122aa82612d36565b604082019050919050565b60006122c2602f8361275b565b91506122cd82612d85565b604082019050919050565b60006122e560218361275b565b91506122f082612dd4565b604082019050919050565b600061230860318361275b565b915061231382612e23565b604082019050919050565b600061232b60128361275b565b915061233682612e72565b602082019050919050565b6000606083016000830151848203600086015261235e8282612091565b91505060208301516123736020860182612391565b5060408301516123866040860182612391565b508091505092915050565b61239a8161289c565b82525050565b6123a98161289c565b82525050565b60006123bb8285612103565b91506123c78284612103565b91508190509392505050565b60006020820190506123e86000830184611fc5565b92915050565b60006080820190506124036000830187611fc5565b6124106020830186611fc5565b61241d60408301856123a0565b818103606083015261242f8184612058565b905095945050505050565b600060208201905081810360008301526124548184611fd4565b905092915050565b60006020820190506124716000830184612049565b92915050565b6000602082019050818103600083015261249181846120ca565b905092915050565b600060208201905081810360008301526124b281612134565b9050919050565b600060208201905081810360008301526124d281612157565b9050919050565b600060208201905081810360008301526124f28161217a565b9050919050565b600060208201905081810360008301526125128161219d565b9050919050565b60006020820190508181036000830152612532816121c0565b9050919050565b60006020820190508181036000830152612552816121e3565b9050919050565b6000602082019050818103600083015261257281612206565b9050919050565b6000602082019050818103600083015261259281612229565b9050919050565b600060208201905081810360008301526125b28161224c565b9050919050565b600060208201905081810360008301526125d28161226f565b9050919050565b600060208201905081810360008301526125f281612292565b9050919050565b60006020820190508181036000830152612612816122b5565b9050919050565b60006020820190508181036000830152612632816122d8565b9050919050565b60006020820190508181036000830152612652816122fb565b9050919050565b600060208201905081810360008301526126728161231e565b9050919050565b600060208201905061268e60008301846123a0565b92915050565b600061269e6126af565b90506126aa828261291a565b919050565b6000604051905090565b600067ffffffffffffffff8211156126d4576126d3612a52565b5b6126dd82612a81565b9050602081019050919050565b6000819050602082019050919050565b600081519050919050565b600081519050919050565b600081519050919050565b6000602082019050919050565b600082825260208201905092915050565b600082825260208201905092915050565b600082825260208201905092915050565b600082825260208201905092915050565b600081905092915050565b60006127828261289c565b915061278d8361289c565b9250827fffffffffffffffffffffffffffffffffffffffffffffffffffffffffffffffff038211156127c2576127c16129c5565b5b828201905092915050565b60006127d88261289c565b91506127e38361289c565b9250826127f3576127f26129f4565b5b828204905092915050565b60006128098261289c565b91506128148361289c565b925082821015612827576128266129c5565b5b828203905092915050565b600061283d8261287c565b9050919050565b60008115159050919050565b60007fffffffff0000000000000000000000000000000000000000000000000000000082169050919050565b600073ffffffffffffffffffffffffffffffffffffffff82169050919050565b6000819050919050565b82818337600083830152505050565b60005b838110156128d35780820151818401526020810190506128b8565b838111156128e2576000848401525b50505050565b6000600282049050600182168061290057607f821691505b6020821081141561291457612913612a23565b5b50919050565b61292382612a81565b810181811067ffffffffffffffff8211171561294257612941612a52565b5b80604052505050565b60006129568261289c565b91507fffffffffffffffffffffffffffffffffffffffffffffffffffffffffffffffff821415612989576129886129c5565b5b600182019050919050565b600061299f8261289c565b91506129aa8361289c565b9250826129ba576129b96129f4565b5b828206905092915050565b7f4e487b7100000000000000000000000000000000000000000000000000000000600052601160045260246000fd5b7f4e487b7100000000000000000000000000000000000000000000000000000000600052601260045260246000fd5b7f4e487b7100000000000000000000000000000000000000000000000000000000600052602260045260246000fd5b7f4e487b7100000000000000000000000000000000000000000000000000000000600052604160045260246000fd5b6000601f19601f8301169050919050565b7f4552433732313a207472616e7366657220746f206e6f6e20455243373231526560008201527f63656976657220696d706c656d656e7465720000000000000000000000000000602082015250565b7f4552433732313a207472616e736665722066726f6d20696e636f72726563742060008201527f6f776e6572000000000000000000000000000000000000000000000000000000602082015250565b7f4552433732313a20746f6b656e20616c7265616479206d696e74656400000000600082015250565b7f4552433732313a207472616e7366657220746f20746865207a65726f2061646460008201527f7265737300000000000000000000000000000000000000000000000000000000602082015250565b7f4552433732313a20617070726f766520746f2063616c6c657200000000000000600082015250565b7f4552433732313a206f70657261746f7220717565727920666f72206e6f6e657860008201527f697374656e7420746f6b656e0000000000000000000000000000000000000000602082015250565b7f4552433732313a20617070726f76652063616c6c6572206973206e6f74206f7760008201527f6e6572206e6f7220617070726f76656420666f7220616c6c0000000000000000602082015250565b7f4552433732313a2062616c616e636520717565727920666f7220746865207a6560008201527f726f206164647265737300000000000000000000000000000000000000000000602082015250565b7f4552433732313a206f776e657220717565727920666f72206e6f6e657869737460008201527f656e7420746f6b656e0000000000000000000000000000000000000000000000602082015250565b7f4552433732313a206d696e7420746f20746865207a65726f2061646472657373600082015250565b7f4552433732313a20617070726f76656420717565727920666f72206e6f6e657860008201527f697374656e7420746f6b656e0000000000000000000000000000000000000000602082015250565b7f4552433732314d657461646174613a2055524920717565727920666f72206e6f60008201527f6e6578697374656e7420746f6b656e0000000000000000000000000000000000602082015250565b7f4552433732313a20617070726f76616c20746f2063757272656e74206f776e6560008201527f7200000000000000000000000000000000000000000000000000000000000000602082015250565b7f4552433732313a207472616e736665722063616c6c6572206973206e6f74206f60008201527f776e6572206e6f7220617070726f766564000000000000000000000000000000602082015250565b7f54656d706c617465206e6f7420666f756e640000000000000000000000000000600082015250565b612ea481612832565b8114612eaf57600080fd5b50565b612ebb81612844565b8114612ec657600080fd5b50565b612ed281612850565b8114612edd57600080fd5b50565b612ee98161289c565b8114612ef457600080fd5b5056fea26469706673582212201e572f77065f664da3dfbc5b498fdcd93d646570a511b3fb0e47c1c0fcac4e4564736f6c63430008040033",
  "linkReferences": {},
  "deployedLinkReferences": {}
}