{
  "_format": "hh-sol-artifact-1",
  "contractName": "SubscriptionNFT",
  "sourceName": "contracts/SubscriptionNFT.sol",
  "abi": [
    {
      "inputs": [],
      "stateMutability": "nonpayable",
      "type": "constructor"
    },
    {
      "anonymous": false,
      "inputs": [
        {
          "indexed": false,
          "internalType": "string",
          "name": "subscriptionName",
          "type": "string"
        },
        {
          "indexed": false,
          "internalType": "uint256",
          "name": "price",
          "type": "uint256"
        },
        {
          "indexed": false,
          "internalType": "uint256",
          "name": "term",
          "type": "uint256"
        }
      ],
      "name": "Added",
      "type": "event"
    },
    {
      "anonymous": false,
      "inputs": [
        {
          "indexed": true,
          "internalType": "address",
          "name": "owner",
          "type": "address"
        },
        {
          "indexed": true,
          "internalType": "address",
          "name": "approved",
          "type": "address"
        },
        {
          "indexed": true,
          "internalType": "uint256",
          "name": "tokenId",
          "type": "uint256"
        }
      ],
      "name": "Approval",
      "type": "event"
    },
    {
      "anonymous": false,
      "inputs": [
        {
          "indexed": true,
          "internalType": "address",
          "name": "owner",
          "type": "address"
        },
        {
          "indexed": true,
          "internalType": "address",
          "name": "operator",
          "type": "address"
        },
        {
          "indexed": false,
          "internalType": "bool",
          "name": "approved",
          "type": "bool"
        }
      ],
      "name": "ApprovalForAll",
      "type": "event"
    },
    {
      "anonymous": false,
      "inputs": [
        {
          "indexed": false,
          "internalType": "uint256",
          "name": "_subscriptionTemplateId",
          "type": "uint256"
        }
      ],
      "name": "CreatedSubscriptionTemplate",
      "type": "event"
    },
    {
      "anonymous": false,
      "inputs": [
        {
          "indexed": false,
          "internalType": "address",
          "name": "recipient",
          "type": "address"
        },
        {
          "indexed": false,
          "internalType": "uint256",
          "name": "subscriptionTemplateId",
          "type": "uint256"
        }
      ],
      "name": "Issued",
      "type": "event"
    },
    {
      "anonymous": false,
      "inputs": [
        {
          "indexed": true,
          "internalType": "address",
          "name": "from",
          "type": "address"
        },
        {
          "indexed": true,
          "internalType": "address",
          "name": "to",
          "type": "address"
        },
        {
          "indexed": true,
          "internalType": "uint256",
          "name": "tokenId",
          "type": "uint256"
        }
      ],
      "name": "Transfer",
      "type": "event"
    },
    {
      "inputs": [
        {
          "internalType": "address",
          "name": "to",
          "type": "address"
        },
        {
          "internalType": "uint256",
          "name": "tokenId",
          "type": "uint256"
        }
      ],
      "name": "approve",
      "outputs": [],
      "stateMutability": "nonpayable",
      "type": "function"
    },
    {
      "inputs": [
        {
          "internalType": "address",
          "name": "owner",
          "type": "address"
        }
      ],
      "name": "balanceOf",
      "outputs": [
        {
          "internalType": "uint256",
          "name": "",
          "type": "uint256"
        }
      ],
      "stateMutability": "view",
      "type": "function"
    },
    {
      "inputs": [
        {
          "internalType": "string",
          "name": "subscriptionName",
          "type": "string"
        },
        {
          "internalType": "uint256",
          "name": "price",
          "type": "uint256"
        },
        {
          "internalType": "uint256",
          "name": "term",
          "type": "uint256"
        }
      ],
      "name": "createSubscriptionTemplate",
      "outputs": [
        {
          "internalType": "uint256",
          "name": "",
          "type": "uint256"
        }
      ],
      "stateMutability": "nonpayable",
      "type": "function"
    },
    {
      "inputs": [
        {
          "internalType": "uint256",
          "name": "tokenId",
          "type": "uint256"
        }
      ],
      "name": "getAggregatedTokenData",
      "outputs": [
        {
          "components": [
            {
              "internalType": "uint256",
              "name": "tokenId",
              "type": "uint256"
            },
            {
              "internalType": "address",
              "name": "ownerAddress",
              "type": "address"
            },
            {
              "internalType": "bool",
              "name": "expired",
              "type": "bool"
            },
            {
              "components": [
                {
                  "internalType": "uint256",
                  "name": "subscriptionTemplateId",
                  "type": "uint256"
                },
                {
                  "internalType": "uint256",
                  "name": "expirationTime",
                  "type": "uint256"
                }
              ],
              "internalType": "struct SubscriptionNFT.TokenData",
              "name": "tokenData",
              "type": "tuple"
            },
            {
              "components": [
                {
                  "internalType": "address",
                  "name": "creatorAddress",
                  "type": "address"
                },
                {
                  "internalType": "string",
                  "name": "subscriptionName",
                  "type": "string"
                },
                {
                  "internalType": "uint256",
                  "name": "price",
                  "type": "uint256"
                },
                {
                  "internalType": "uint256",
                  "name": "term",
                  "type": "uint256"
                }
              ],
              "internalType": "struct SubscriptionNFT.SubscriptionTemplate",
              "name": "subscriptionData",
              "type": "tuple"
            }
          ],
          "internalType": "struct SubscriptionNFT.AggregatedTokenData",
          "name": "",
          "type": "tuple"
        }
      ],
      "stateMutability": "view",
      "type": "function"
    },
    {
      "inputs": [
        {
          "internalType": "uint256",
          "name": "tokenId",
          "type": "uint256"
        }
      ],
      "name": "getApproved",
      "outputs": [
        {
          "internalType": "address",
          "name": "",
          "type": "address"
        }
      ],
      "stateMutability": "view",
      "type": "function"
    },
    {
      "inputs": [],
      "name": "getOwnerSubscriptions",
      "outputs": [
        {
          "components": [
            {
              "internalType": "uint256",
              "name": "subscriptionTemplateId",
              "type": "uint256"
            },
            {
              "internalType": "uint256",
              "name": "expirationTime",
              "type": "uint256"
            }
          ],
          "internalType": "struct SubscriptionNFT.TokenData[]",
          "name": "",
          "type": "tuple[]"
        }
      ],
      "stateMutability": "view",
      "type": "function"
    },
    {
      "inputs": [
        {
          "internalType": "address",
          "name": "owner",
          "type": "address"
        },
        {
          "internalType": "address",
          "name": "operator",
          "type": "address"
        }
      ],
      "name": "isApprovedForAll",
      "outputs": [
        {
          "internalType": "bool",
          "name": "",
          "type": "bool"
        }
      ],
      "stateMutability": "view",
      "type": "function"
    },
    {
      "inputs": [
        {
          "internalType": "uint256",
          "name": "subscriptionTemplateId",
          "type": "uint256"
        }
      ],
      "name": "issueSubscriptionNFT",
      "outputs": [
        {
          "internalType": "uint256",
          "name": "",
          "type": "uint256"
        }
      ],
      "stateMutability": "payable",
      "type": "function"
    },
    {
      "inputs": [],
      "name": "name",
      "outputs": [
        {
          "internalType": "string",
          "name": "",
          "type": "string"
        }
      ],
      "stateMutability": "view",
      "type": "function"
    },
    {
      "inputs": [
        {
          "internalType": "uint256",
          "name": "tokenId",
          "type": "uint256"
        }
      ],
      "name": "ownerOf",
      "outputs": [
        {
          "internalType": "address",
          "name": "",
          "type": "address"
        }
      ],
      "stateMutability": "view",
      "type": "function"
    },
    {
      "inputs": [
        {
          "internalType": "address",
          "name": "",
          "type": "address"
        },
        {
          "internalType": "uint256",
          "name": "",
          "type": "uint256"
        }
      ],
      "name": "ownerSubscriptions",
      "outputs": [
        {
          "internalType": "uint256",
          "name": "subscriptionTemplateId",
          "type": "uint256"
        },
        {
          "internalType": "uint256",
          "name": "expirationTime",
          "type": "uint256"
        }
      ],
      "stateMutability": "view",
      "type": "function"
    },
    {
      "inputs": [
        {
          "internalType": "address",
          "name": "from",
          "type": "address"
        },
        {
          "internalType": "address",
          "name": "to",
          "type": "address"
        },
        {
          "internalType": "uint256",
          "name": "tokenId",
          "type": "uint256"
        }
      ],
      "name": "safeTransferFrom",
      "outputs": [],
      "stateMutability": "nonpayable",
      "type": "function"
    },
    {
      "inputs": [
        {
          "internalType": "address",
          "name": "from",
          "type": "address"
        },
        {
          "internalType": "address",
          "name": "to",
          "type": "address"
        },
        {
          "internalType": "uint256",
          "name": "tokenId",
          "type": "uint256"
        },
        {
          "internalType": "bytes",
          "name": "_data",
          "type": "bytes"
        }
      ],
      "name": "safeTransferFrom",
      "outputs": [],
      "stateMutability": "nonpayable",
      "type": "function"
    },
    {
      "inputs": [
        {
          "internalType": "address",
          "name": "operator",
          "type": "address"
        },
        {
          "internalType": "bool",
          "name": "approved",
          "type": "bool"
        }
      ],
      "name": "setApprovalForAll",
      "outputs": [],
      "stateMutability": "nonpayable",
      "type": "function"
    },
    {
      "inputs": [
        {
          "internalType": "uint256",
          "name": "",
          "type": "uint256"
        }
      ],
      "name": "subscriptionTemplates",
      "outputs": [
        {
          "internalType": "address",
          "name": "creatorAddress",
          "type": "address"
        },
        {
          "internalType": "string",
          "name": "subscriptionName",
          "type": "string"
        },
        {
          "internalType": "uint256",
          "name": "price",
          "type": "uint256"
        },
        {
          "internalType": "uint256",
          "name": "term",
          "type": "uint256"
        }
      ],
      "stateMutability": "view",
      "type": "function"
    },
    {
      "inputs": [
        {
          "internalType": "bytes4",
          "name": "interfaceId",
          "type": "bytes4"
        }
      ],
      "name": "supportsInterface",
      "outputs": [
        {
          "internalType": "bool",
          "name": "",
          "type": "bool"
        }
      ],
      "stateMutability": "view",
      "type": "function"
    },
    {
      "inputs": [],
      "name": "symbol",
      "outputs": [
        {
          "internalType": "string",
          "name": "",
          "type": "string"
        }
      ],
      "stateMutability": "view",
      "type": "function"
    },
    {
      "inputs": [
        {
          "internalType": "uint256",
          "name": "tokenId",
          "type": "uint256"
        }
      ],
      "name": "tokenURI",
      "outputs": [
        {
          "internalType": "string",
          "name": "",
          "type": "string"
        }
      ],
      "stateMutability": "view",
      "type": "function"
    },
    {
      "inputs": [
        {
          "internalType": "address",
          "name": "from",
          "type": "address"
        },
        {
          "internalType": "address",
          "name": "to",
          "type": "address"
        },
        {
          "internalType": "uint256",
          "name": "tokenId",
          "type": "uint256"
        }
      ],
      "name": "transferFrom",
      "outputs": [],
      "stateMutability": "nonpayable",
      "type": "function"
    }
  ],
  "bytecode": "0x60806040523480156200001157600080fd5b506040518060400160405280600f81526020017f537562736372697074696f6e4e465400000000000000000000000000000000008152506040518060400160405280600381526020017f5355420000000000000000000000000000000000000000000000000000000000815250816000908051906020019062000096929190620000b8565b508060019080519060200190620000af929190620000b8565b505050620001cd565b828054620000c69062000168565b90600052602060002090601f016020900481019282620000ea576000855562000136565b82601f106200010557805160ff191683800117855562000136565b8280016001018555821562000136579182015b828111156200013557825182559160200191906001019062000118565b5b50905062000145919062000149565b5090565b5b80821115620001645760008160009055506001016200014a565b5090565b600060028204905060018216806200018157607f821691505b602082108114156200019857620001976200019e565b5b50919050565b7f4e487b7100000000000000000000000000000000000000000000000000000000600052602260045260246000fd5b6137cf80620001dd6000396000f3fe6080604052600436106101145760003560e01c806370a08231116100a0578063a22cb46511610064578063a22cb465146103f4578063b88d4fde1461041d578063bb6e805014610446578063c87b56dd14610483578063e985e9c5146104c057610114565b806370a08231146102e657806378f2e164146103235780637e711d381461034e578063852731241461038b57806395d89b41146103c957610114565b806323b872dd116100e757806323b872dd146101e757806338da41de1461021057806342842e0e14610250578063532137d6146102795780636352211e146102a957610114565b806301ffc9a71461011957806306fdde0314610156578063081812fc14610181578063095ea7b3146101be575b600080fd5b34801561012557600080fd5b50610140600480360381019061013b91906124a7565b6104fd565b60405161014d9190612bb2565b60405180910390f35b34801561016257600080fd5b5061016b6105df565b6040516101789190612bcd565b60405180910390f35b34801561018d57600080fd5b506101a860048036038101906101a39190612560565b610671565b6040516101b59190612ab4565b60405180910390f35b3480156101ca57600080fd5b506101e560048036038101906101e0919061246b565b6106f6565b005b3480156101f357600080fd5b5061020e60048036038101906102099190612365565b61080e565b005b34801561021c57600080fd5b5061023760048036038101906102329190612560565b61086e565b6040516102479493929190612b1b565b60405180910390f35b34801561025c57600080fd5b5061027760048036038101906102729190612365565b610946565b005b610293600480360381019061028e9190612560565b610966565b6040516102a09190612e6f565b60405180910390f35b3480156102b557600080fd5b506102d060048036038101906102cb9190612560565b610bd2565b6040516102dd9190612ab4565b60405180910390f35b3480156102f257600080fd5b5061030d60048036038101906103089190612300565b610c84565b60405161031a9190612e6f565b60405180910390f35b34801561032f57600080fd5b50610338610d3c565b6040516103459190612b90565b60405180910390f35b34801561035a57600080fd5b5061037560048036038101906103709190612560565b610df2565b6040516103829190612e4d565b60405180910390f35b34801561039757600080fd5b506103b260048036038101906103ad919061246b565b610fa2565b6040516103c0929190612e8a565b60405180910390f35b3480156103d557600080fd5b506103de610fe3565b6040516103eb9190612bcd565b60405180910390f35b34801561040057600080fd5b5061041b6004803603810190610416919061242f565b611075565b005b34801561042957600080fd5b50610444600480360381019061043f91906123b4565b61108b565b005b34801561045257600080fd5b5061046d600480360381019061046891906124f9565b6110ed565b60405161047a9190612e6f565b60405180910390f35b34801561048f57600080fd5b506104aa60048036038101906104a59190612560565b611313565b6040516104b79190612bcd565b60405180910390f35b3480156104cc57600080fd5b506104e760048036038101906104e29190612329565b6113ba565b6040516104f49190612bb2565b60405180910390f35b60007f80ac58cd000000000000000000000000000000000000000000000000000000007bffffffffffffffffffffffffffffffffffffffffffffffffffffffff1916827bffffffffffffffffffffffffffffffffffffffffffffffffffffffff191614806105c857507f5b5e139f000000000000000000000000000000000000000000000000000000007bffffffffffffffffffffffffffffffffffffffffffffffffffffffff1916827bffffffffffffffffffffffffffffffffffffffffffffffffffffffff1916145b806105d857506105d78261144e565b5b9050919050565b6060600080546105ee90613138565b80601f016020809104026020016040519081016040528092919081815260200182805461061a90613138565b80156106675780601f1061063c57610100808354040283529160200191610667565b820191906000526020600020905b81548152906001019060200180831161064a57829003601f168201915b5050505050905090565b600061067c826114b8565b6106bb576040517f08c379a00000000000000000000000000000000000000000000000000000000081526004016106b290612dad565b60405180910390fd5b6004600083815260200190815260200160002060009054906101000a900473ffffffffffffffffffffffffffffffffffffffff169050919050565b600061070182610bd2565b90508073ffffffffffffffffffffffffffffffffffffffff168373ffffffffffffffffffffffffffffffffffffffff161415610772576040517f08c379a000000000000000000000000000000000000000000000000000000000815260040161076990612ded565b60405180910390fd5b8073ffffffffffffffffffffffffffffffffffffffff16610791611524565b73ffffffffffffffffffffffffffffffffffffffff1614806107c057506107bf816107ba611524565b6113ba565b5b6107ff576040517f08c379a00000000000000000000000000000000000000000000000000000000081526004016107f690612d2d565b60405180910390fd5b610809838361152c565b505050565b61081f610819611524565b826115e5565b61085e576040517f08c379a000000000000000000000000000000000000000000000000000000000815260040161085590612e0d565b60405180910390fd5b6108698383836116c3565b505050565b600a6020528060005260406000206000915090508060000160009054906101000a900473ffffffffffffffffffffffffffffffffffffffff16908060010180546108b790613138565b80601f01602080910402602001604051908101604052809291908181526020018280546108e390613138565b80156109305780601f1061090557610100808354040283529160200191610930565b820191906000526020600020905b81548152906001019060200180831161091357829003601f168201915b5050505050908060020154908060030154905084565b6109618383836040518060200160405280600081525061108b565b505050565b6000610972600661192a565b600061097e6006611940565b905061098a338261194e565b6000600a60008581526020019081526020016000206040518060800160405290816000820160009054906101000a900473ffffffffffffffffffffffffffffffffffffffff1673ffffffffffffffffffffffffffffffffffffffff1673ffffffffffffffffffffffffffffffffffffffff168152602001600182018054610a1090613138565b80601f0160208091040260200160405190810160405280929190818152602001828054610a3c90613138565b8015610a895780601f10610a5e57610100808354040283529160200191610a89565b820191906000526020600020905b815481529060010190602001808311610a6c57829003601f168201915b50505050508152602001600282015481526020016003820154815250509050836008600084815260200190815260200160002060000181905550806060015142610ad39190612fc7565b6008600084815260200190815260200160002060010181905550600960003373ffffffffffffffffffffffffffffffffffffffff1673ffffffffffffffffffffffffffffffffffffffff1681526020019081526020016000206040518060400160405280868152602001836060015142610b4d9190612fc7565b8152509080600181540180825580915050600190039060005260206000209060020201600090919091909150600082015181600001556020820151816001015550507fa59f12e354e8cd10bb74c559844c2dd69a5458e31fe56c7594c62ca57480509a3385604051610bc0929190612b67565b60405180910390a18192505050919050565b6000806002600084815260200190815260200160002060009054906101000a900473ffffffffffffffffffffffffffffffffffffffff169050600073ffffffffffffffffffffffffffffffffffffffff168173ffffffffffffffffffffffffffffffffffffffff161415610c7b576040517f08c379a0000000000000000000000000000000000000000000000000000000008152600401610c7290612d6d565b60405180910390fd5b80915050919050565b60008073ffffffffffffffffffffffffffffffffffffffff168273ffffffffffffffffffffffffffffffffffffffff161415610cf5576040517f08c379a0000000000000000000000000000000000000000000000000000000008152600401610cec90612d4d565b60405180910390fd5b600360008373ffffffffffffffffffffffffffffffffffffffff1673ffffffffffffffffffffffffffffffffffffffff168152602001908152602001600020549050919050565b60606000600960003373ffffffffffffffffffffffffffffffffffffffff1673ffffffffffffffffffffffffffffffffffffffff168152602001908152602001600020805480602002602001604051908101604052809291908181526020016000905b82821015610de557838290600052602060002090600202016040518060400160405290816000820154815260200160018201548152505081526020019060010190610d9f565b5050505090508091505090565b610dfa612079565b6000600860008481526020019081526020016000206040518060400160405290816000820154815260200160018201548152505090506040518060a00160405280848152602001610e4a85610bd2565b73ffffffffffffffffffffffffffffffffffffffff1681526020014283602001511015158152602001828152602001600a6000846000015181526020019081526020016000206040518060800160405290816000820160009054906101000a900473ffffffffffffffffffffffffffffffffffffffff1673ffffffffffffffffffffffffffffffffffffffff1673ffffffffffffffffffffffffffffffffffffffff168152602001600182018054610f0190613138565b80601f0160208091040260200160405190810160405280929190818152602001828054610f2d90613138565b8015610f7a5780601f10610f4f57610100808354040283529160200191610f7a565b820191906000526020600020905b815481529060010190602001808311610f5d57829003601f168201915b5050505050815260200160028201548152602001600382015481525050815250915050919050565b60096020528160005260406000208181548110610fbe57600080fd5b9060005260206000209060020201600091509150508060000154908060010154905082565b606060018054610ff290613138565b80601f016020809104026020016040519081016040528092919081815260200182805461101e90613138565b801561106b5780601f106110405761010080835404028352916020019161106b565b820191906000526020600020905b81548152906001019060200180831161104e57829003601f168201915b5050505050905090565b611087611080611524565b8383611b28565b5050565b61109c611096611524565b836115e5565b6110db576040517f08c379a00000000000000000000000000000000000000000000000000000000081526004016110d290612e0d565b60405180910390fd5b6110e784848484611c95565b50505050565b6000603c82148061110057506228206f82145b8061110e57506301e1853e82145b61114d576040517f08c379a000000000000000000000000000000000000000000000000000000000815260040161114490612d0d565b60405180910390fd5b60008311801561115f5750620f424083105b61119e576040517f08c379a000000000000000000000000000000000000000000000000000000000815260040161119590612e2d565b60405180910390fd5b600084511180156111b157506020845111155b6111f0576040517f08c379a00000000000000000000000000000000000000000000000000000000081526004016111e790612c2d565b60405180910390fd5b6111fa600761192a565b60006112066007611940565b905060405180608001604052803373ffffffffffffffffffffffffffffffffffffffff16815260200186815260200185815260200184815250600a600083815260200190815260200160002060008201518160000160006101000a81548173ffffffffffffffffffffffffffffffffffffffff021916908373ffffffffffffffffffffffffffffffffffffffff16021790555060208201518160010190805190602001906112b59291906120cc565b5060408201518160020155606082015181600301559050507f837102bfa3fa1437554712a20c1c1d67b6689aa3f9739b4fb7cb2d1eab97a2b985858560405161130093929190612bef565b60405180910390a1809150509392505050565b606061131e826114b8565b61135d576040517f08c379a000000000000000000000000000000000000000000000000000000000815260040161135490612dcd565b60405180910390fd5b6000611367611cf1565b9050600081511161138757604051806020016040528060008152506113b2565b8061139184611d08565b6040516020016113a2929190612a90565b6040516020818303038152906040525b915050919050565b6000600560008473ffffffffffffffffffffffffffffffffffffffff1673ffffffffffffffffffffffffffffffffffffffff16815260200190815260200160002060008373ffffffffffffffffffffffffffffffffffffffff1673ffffffffffffffffffffffffffffffffffffffff16815260200190815260200160002060009054906101000a900460ff16905092915050565b60007f01ffc9a7000000000000000000000000000000000000000000000000000000007bffffffffffffffffffffffffffffffffffffffffffffffffffffffff1916827bffffffffffffffffffffffffffffffffffffffffffffffffffffffff1916149050919050565b60008073ffffffffffffffffffffffffffffffffffffffff166002600084815260200190815260200160002060009054906101000a900473ffffffffffffffffffffffffffffffffffffffff1673ffffffffffffffffffffffffffffffffffffffff1614159050919050565b600033905090565b816004600083815260200190815260200160002060006101000a81548173ffffffffffffffffffffffffffffffffffffffff021916908373ffffffffffffffffffffffffffffffffffffffff160217905550808273ffffffffffffffffffffffffffffffffffffffff1661159f83610bd2565b73ffffffffffffffffffffffffffffffffffffffff167f8c5be1e5ebec7d5bd14f71427d1e84f3dd0314c0f7b2291e5b200ac8c7c3b92560405160405180910390a45050565b60006115f0826114b8565b61162f576040517f08c379a000000000000000000000000000000000000000000000000000000000815260040161162690612ced565b60405180910390fd5b600061163a83610bd2565b90508073ffffffffffffffffffffffffffffffffffffffff168473ffffffffffffffffffffffffffffffffffffffff16148061167c575061167b81856113ba565b5b806116ba57508373ffffffffffffffffffffffffffffffffffffffff166116a284610671565b73ffffffffffffffffffffffffffffffffffffffff16145b91505092915050565b8273ffffffffffffffffffffffffffffffffffffffff166116e382610bd2565b73ffffffffffffffffffffffffffffffffffffffff1614611739576040517f08c379a000000000000000000000000000000000000000000000000000000000815260040161173090612c6d565b60405180910390fd5b600073ffffffffffffffffffffffffffffffffffffffff168273ffffffffffffffffffffffffffffffffffffffff1614156117a9576040517f08c379a00000000000000000000000000000000000000000000000000000000081526004016117a090612cad565b60405180910390fd5b6117b4838383611eb5565b6117bf60008261152c565b6001600360008573ffffffffffffffffffffffffffffffffffffffff1673ffffffffffffffffffffffffffffffffffffffff168152602001908152602001600020600082825461180f919061304e565b925050819055506001600360008473ffffffffffffffffffffffffffffffffffffffff1673ffffffffffffffffffffffffffffffffffffffff16815260200190815260200160002060008282546118669190612fc7565b92505081905550816002600083815260200190815260200160002060006101000a81548173ffffffffffffffffffffffffffffffffffffffff021916908373ffffffffffffffffffffffffffffffffffffffff160217905550808273ffffffffffffffffffffffffffffffffffffffff168473ffffffffffffffffffffffffffffffffffffffff167fddf252ad1be2c89b69c2b068fc378daa952ba7f163c4a11628f55a4df523b3ef60405160405180910390a4611925838383611eba565b505050565b6001816000016000828254019250508190555050565b600081600001549050919050565b600073ffffffffffffffffffffffffffffffffffffffff168273ffffffffffffffffffffffffffffffffffffffff1614156119be576040517f08c379a00000000000000000000000000000000000000000000000000000000081526004016119b590612d8d565b60405180910390fd5b6119c7816114b8565b15611a07576040517f08c379a00000000000000000000000000000000000000000000000000000000081526004016119fe90612c8d565b60405180910390fd5b611a1360008383611eb5565b6001600360008473ffffffffffffffffffffffffffffffffffffffff1673ffffffffffffffffffffffffffffffffffffffff1681526020019081526020016000206000828254611a639190612fc7565b92505081905550816002600083815260200190815260200160002060006101000a81548173ffffffffffffffffffffffffffffffffffffffff021916908373ffffffffffffffffffffffffffffffffffffffff160217905550808273ffffffffffffffffffffffffffffffffffffffff16600073ffffffffffffffffffffffffffffffffffffffff167fddf252ad1be2c89b69c2b068fc378daa952ba7f163c4a11628f55a4df523b3ef60405160405180910390a4611b2460008383611eba565b5050565b8173ffffffffffffffffffffffffffffffffffffffff168373ffffffffffffffffffffffffffffffffffffffff161415611b97576040517f08c379a0000000000000000000000000000000000000000000000000000000008152600401611b8e90612ccd565b60405180910390fd5b80600560008573ffffffffffffffffffffffffffffffffffffffff1673ffffffffffffffffffffffffffffffffffffffff16815260200190815260200160002060008473ffffffffffffffffffffffffffffffffffffffff1673ffffffffffffffffffffffffffffffffffffffff16815260200190815260200160002060006101000a81548160ff0219169083151502179055508173ffffffffffffffffffffffffffffffffffffffff168373ffffffffffffffffffffffffffffffffffffffff167f17307eab39ab6107e8899845ad3d59bd9653f200f220920489ca2b5937696c3183604051611c889190612bb2565b60405180910390a3505050565b611ca08484846116c3565b611cac84848484611ebf565b611ceb576040517f08c379a0000000000000000000000000000000000000000000000000000000008152600401611ce290612c4d565b60405180910390fd5b50505050565b606060405180602001604052806000815250905090565b60606000821415611d50576040518060400160405280600181526020017f30000000000000000000000000000000000000000000000000000000000000008152509050611eb0565b600082905060005b60008214611d82578080611d6b9061319b565b915050600a82611d7b919061301d565b9150611d58565b60008167ffffffffffffffff811115611dc4577f4e487b7100000000000000000000000000000000000000000000000000000000600052604160045260246000fd5b6040519080825280601f01601f191660200182016040528015611df65781602001600182028036833780820191505090505b5090505b60008514611ea957600182611e0f919061304e565b9150600a85611e1e91906131e4565b6030611e2a9190612fc7565b60f81b818381518110611e66577f4e487b7100000000000000000000000000000000000000000000000000000000600052603260045260246000fd5b60200101907effffffffffffffffffffffffffffffffffffffffffffffffffffffffffffff1916908160001a905350600a85611ea2919061301d565b9450611dfa565b8093505050505b919050565b505050565b505050565b6000611ee08473ffffffffffffffffffffffffffffffffffffffff16612056565b15612049578373ffffffffffffffffffffffffffffffffffffffff1663150b7a02611f09611524565b8786866040518563ffffffff1660e01b8152600401611f2b9493929190612acf565b602060405180830381600087803b158015611f4557600080fd5b505af1925050508015611f7657506040513d601f19601f82011682018060405250810190611f7391906124d0565b60015b611ff9573d8060008114611fa6576040519150601f19603f3d011682016040523d82523d6000602084013e611fab565b606091505b50600081511415611ff1576040517f08c379a0000000000000000000000000000000000000000000000000000000008152600401611fe890612c4d565b60405180910390fd5b805181602001fd5b63150b7a0260e01b7bffffffffffffffffffffffffffffffffffffffffffffffffffffffff1916817bffffffffffffffffffffffffffffffffffffffffffffffffffffffff19161491505061204e565b600190505b949350505050565b6000808273ffffffffffffffffffffffffffffffffffffffff163b119050919050565b6040518060a0016040528060008152602001600073ffffffffffffffffffffffffffffffffffffffff1681526020016000151581526020016120b9612152565b81526020016120c661216c565b81525090565b8280546120d890613138565b90600052602060002090601f0160209004810192826120fa5760008555612141565b82601f1061211357805160ff1916838001178555612141565b82800160010185558215612141579182015b82811115612140578251825591602001919060010190612125565b5b50905061214e91906121aa565b5090565b604051806040016040528060008152602001600081525090565b6040518060800160405280600073ffffffffffffffffffffffffffffffffffffffff1681526020016060815260200160008152602001600081525090565b5b808211156121c35760008160009055506001016121ab565b5090565b60006121da6121d584612ed8565b612eb3565b9050828152602081018484840111156121f257600080fd5b6121fd8482856130f6565b509392505050565b600061221861221384612f09565b612eb3565b90508281526020810184848401111561223057600080fd5b61223b8482856130f6565b509392505050565b6000813590506122528161373d565b92915050565b60008135905061226781613754565b92915050565b60008135905061227c8161376b565b92915050565b6000815190506122918161376b565b92915050565b600082601f8301126122a857600080fd5b81356122b88482602086016121c7565b91505092915050565b600082601f8301126122d257600080fd5b81356122e2848260208601612205565b91505092915050565b6000813590506122fa81613782565b92915050565b60006020828403121561231257600080fd5b600061232084828501612243565b91505092915050565b6000806040838503121561233c57600080fd5b600061234a85828601612243565b925050602061235b85828601612243565b9150509250929050565b60008060006060848603121561237a57600080fd5b600061238886828701612243565b935050602061239986828701612243565b92505060406123aa868287016122eb565b9150509250925092565b600080600080608085870312156123ca57600080fd5b60006123d887828801612243565b94505060206123e987828801612243565b93505060406123fa878288016122eb565b925050606085013567ffffffffffffffff81111561241757600080fd5b61242387828801612297565b91505092959194509250565b6000806040838503121561244257600080fd5b600061245085828601612243565b925050602061246185828601612258565b9150509250929050565b6000806040838503121561247e57600080fd5b600061248c85828601612243565b925050602061249d858286016122eb565b9150509250929050565b6000602082840312156124b957600080fd5b60006124c78482850161226d565b91505092915050565b6000602082840312156124e257600080fd5b60006124f084828501612282565b91505092915050565b60008060006060848603121561250e57600080fd5b600084013567ffffffffffffffff81111561252857600080fd5b612534868287016122c1565b9350506020612545868287016122eb565b9250506040612556868287016122eb565b9150509250925092565b60006020828403121561257257600080fd5b6000612580848285016122eb565b91505092915050565b60006125958383612a43565b60408301905092915050565b6125aa81613082565b82525050565b6125b981613082565b82525050565b60006125ca82612f4a565b6125d48185612f78565b93506125df83612f3a565b8060005b838110156126105781516125f78882612589565b975061260283612f6b565b9250506001810190506125e3565b5085935050505092915050565b61262681613094565b82525050565b61263581613094565b82525050565b600061264682612f55565b6126508185612f89565b9350612660818560208601613105565b612669816132d1565b840191505092915050565b600061267f82612f60565b6126898185612f9a565b9350612699818560208601613105565b6126a2816132d1565b840191505092915050565b60006126b882612f60565b6126c28185612fab565b93506126d2818560208601613105565b6126db816132d1565b840191505092915050565b60006126f182612f60565b6126fb8185612fbc565b935061270b818560208601613105565b80840191505092915050565b6000612724600c83612fab565b915061272f826132e2565b602082019050919050565b6000612747603283612fab565b91506127528261330b565b604082019050919050565b600061276a602583612fab565b91506127758261335a565b604082019050919050565b600061278d601c83612fab565b9150612798826133a9565b602082019050919050565b60006127b0602483612fab565b91506127bb826133d2565b604082019050919050565b60006127d3601983612fab565b91506127de82613421565b602082019050919050565b60006127f6602c83612fab565b91506128018261344a565b604082019050919050565b6000612819600c83612fab565b915061282482613499565b602082019050919050565b600061283c603883612fab565b9150612847826134c2565b604082019050919050565b600061285f602a83612fab565b915061286a82613511565b604082019050919050565b6000612882602983612fab565b915061288d82613560565b604082019050919050565b60006128a5602083612fab565b91506128b0826135af565b602082019050919050565b60006128c8602c83612fab565b91506128d3826135d8565b604082019050919050565b60006128eb602f83612fab565b91506128f682613627565b604082019050919050565b600061290e602183612fab565b915061291982613676565b604082019050919050565b6000612931603183612fab565b915061293c826136c5565b604082019050919050565b6000612954600d83612fab565b915061295f82613714565b602082019050919050565b600060c0830160008301516129826000860182612a72565b50602083015161299560208601826125a1565b5060408301516129a8604086018261261d565b5060608301516129bb6060860182612a43565b50608083015184820360a08601526129d382826129e0565b9150508091505092915050565b60006080830160008301516129f860008601826125a1565b5060208301518482036020860152612a108282612674565b9150506040830151612a256040860182612a72565b506060830151612a386060860182612a72565b508091505092915050565b604082016000820151612a596000850182612a72565b506020820151612a6c6020850182612a72565b50505050565b612a7b816130ec565b82525050565b612a8a816130ec565b82525050565b6000612a9c82856126e6565b9150612aa882846126e6565b91508190509392505050565b6000602082019050612ac960008301846125b0565b92915050565b6000608082019050612ae460008301876125b0565b612af160208301866125b0565b612afe6040830185612a81565b8181036060830152612b10818461263b565b905095945050505050565b6000608082019050612b3060008301876125b0565b8181036020830152612b4281866126ad565b9050612b516040830185612a81565b612b5e6060830184612a81565b95945050505050565b6000604082019050612b7c60008301856125b0565b612b896020830184612a81565b9392505050565b60006020820190508181036000830152612baa81846125bf565b905092915050565b6000602082019050612bc7600083018461262c565b92915050565b60006020820190508181036000830152612be781846126ad565b905092915050565b60006060820190508181036000830152612c0981866126ad565b9050612c186020830185612a81565b612c256040830184612a81565b949350505050565b60006020820190508181036000830152612c4681612717565b9050919050565b60006020820190508181036000830152612c668161273a565b9050919050565b60006020820190508181036000830152612c868161275d565b9050919050565b60006020820190508181036000830152612ca681612780565b9050919050565b60006020820190508181036000830152612cc6816127a3565b9050919050565b60006020820190508181036000830152612ce6816127c6565b9050919050565b60006020820190508181036000830152612d06816127e9565b9050919050565b60006020820190508181036000830152612d268161280c565b9050919050565b60006020820190508181036000830152612d468161282f565b9050919050565b60006020820190508181036000830152612d6681612852565b9050919050565b60006020820190508181036000830152612d8681612875565b9050919050565b60006020820190508181036000830152612da681612898565b9050919050565b60006020820190508181036000830152612dc6816128bb565b9050919050565b60006020820190508181036000830152612de6816128de565b9050919050565b60006020820190508181036000830152612e0681612901565b9050919050565b60006020820190508181036000830152612e2681612924565b9050919050565b60006020820190508181036000830152612e4681612947565b9050919050565b60006020820190508181036000830152612e67818461296a565b905092915050565b6000602082019050612e846000830184612a81565b92915050565b6000604082019050612e9f6000830185612a81565b612eac6020830184612a81565b9392505050565b6000612ebd612ece565b9050612ec9828261316a565b919050565b6000604051905090565b600067ffffffffffffffff821115612ef357612ef26132a2565b5b612efc826132d1565b9050602081019050919050565b600067ffffffffffffffff821115612f2457612f236132a2565b5b612f2d826132d1565b9050602081019050919050565b6000819050602082019050919050565b600081519050919050565b600081519050919050565b600081519050919050565b6000602082019050919050565b600082825260208201905092915050565b600082825260208201905092915050565b600082825260208201905092915050565b600082825260208201905092915050565b600081905092915050565b6000612fd2826130ec565b9150612fdd836130ec565b9250827fffffffffffffffffffffffffffffffffffffffffffffffffffffffffffffffff0382111561301257613011613215565b5b828201905092915050565b6000613028826130ec565b9150613033836130ec565b92508261304357613042613244565b5b828204905092915050565b6000613059826130ec565b9150613064836130ec565b92508282101561307757613076613215565b5b828203905092915050565b600061308d826130cc565b9050919050565b60008115159050919050565b60007fffffffff0000000000000000000000000000000000000000000000000000000082169050919050565b600073ffffffffffffffffffffffffffffffffffffffff82169050919050565b6000819050919050565b82818337600083830152505050565b60005b83811015613123578082015181840152602081019050613108565b83811115613132576000848401525b50505050565b6000600282049050600182168061315057607f821691505b6020821081141561316457613163613273565b5b50919050565b613173826132d1565b810181811067ffffffffffffffff82111715613192576131916132a2565b5b80604052505050565b60006131a6826130ec565b91507fffffffffffffffffffffffffffffffffffffffffffffffffffffffffffffffff8214156131d9576131d8613215565b5b600182019050919050565b60006131ef826130ec565b91506131fa836130ec565b92508261320a57613209613244565b5b828206905092915050565b7f4e487b7100000000000000000000000000000000000000000000000000000000600052601160045260246000fd5b7f4e487b7100000000000000000000000000000000000000000000000000000000600052601260045260246000fd5b7f4e487b7100000000000000000000000000000000000000000000000000000000600052602260045260246000fd5b7f4e487b7100000000000000000000000000000000000000000000000000000000600052604160045260246000fd5b6000601f19601f8301169050919050565b7f496e76616c6964206e616d650000000000000000000000000000000000000000600082015250565b7f4552433732313a207472616e7366657220746f206e6f6e20455243373231526560008201527f63656976657220696d706c656d656e7465720000000000000000000000000000602082015250565b7f4552433732313a207472616e736665722066726f6d20696e636f72726563742060008201527f6f776e6572000000000000000000000000000000000000000000000000000000602082015250565b7f4552433732313a20746f6b656e20616c7265616479206d696e74656400000000600082015250565b7f4552433732313a207472616e7366657220746f20746865207a65726f2061646460008201527f7265737300000000000000000000000000000000000000000000000000000000602082015250565b7f4552433732313a20617070726f766520746f2063616c6c657200000000000000600082015250565b7f4552433732313a206f70657261746f7220717565727920666f72206e6f6e657860008201527f697374656e7420746f6b656e0000000000000000000000000000000000000000602082015250565b7f496e76616c6964207465726d0000000000000000000000000000000000000000600082015250565b7f4552433732313a20617070726f76652063616c6c6572206973206e6f74206f7760008201527f6e6572206e6f7220617070726f76656420666f7220616c6c0000000000000000602082015250565b7f4552433732313a2062616c616e636520717565727920666f7220746865207a6560008201527f726f206164647265737300000000000000000000000000000000000000000000602082015250565b7f4552433732313a206f776e657220717565727920666f72206e6f6e657869737460008201527f656e7420746f6b656e0000000000000000000000000000000000000000000000602082015250565b7f4552433732313a206d696e7420746f20746865207a65726f2061646472657373600082015250565b7f4552433732313a20617070726f76656420717565727920666f72206e6f6e657860008201527f697374656e7420746f6b656e0000000000000000000000000000000000000000602082015250565b7f4552433732314d657461646174613a2055524920717565727920666f72206e6f60008201527f6e6578697374656e7420746f6b656e0000000000000000000000000000000000602082015250565b7f4552433732313a20617070726f76616c20746f2063757272656e74206f776e6560008201527f7200000000000000000000000000000000000000000000000000000000000000602082015250565b7f4552433732313a207472616e736665722063616c6c6572206973206e6f74206f60008201527f776e6572206e6f7220617070726f766564000000000000000000000000000000602082015250565b7f496e76616c696420707269636500000000000000000000000000000000000000600082015250565b61374681613082565b811461375157600080fd5b50565b61375d81613094565b811461376857600080fd5b50565b613774816130a0565b811461377f57600080fd5b50565b61378b816130ec565b811461379657600080fd5b5056fea26469706673582212201294c5e7da2445cb68fe055f750c277a41bd4b52383a54393498eba81fa04a4264736f6c63430008040033",
  "linkReferences": {},
  "deployedLinkReferences": {}
}