{
  "_format": "hh-sol-artifact-1",
  "contractName": "SubscriptionNFT",
  "sourceName": "contracts/SubscriptionNFT.sol",
  "abi": [
    {
      "inputs": [],
      "stateMutability": "nonpayable",
      "type": "constructor"
    },
    {
      "anonymous": false,
      "inputs": [
        {
          "indexed": true,
          "internalType": "address",
          "name": "owner",
          "type": "address"
        },
        {
          "indexed": true,
          "internalType": "address",
          "name": "approved",
          "type": "address"
        },
        {
          "indexed": true,
          "internalType": "uint256",
          "name": "tokenId",
          "type": "uint256"
        }
      ],
      "name": "Approval",
      "type": "event"
    },
    {
      "anonymous": false,
      "inputs": [
        {
          "indexed": true,
          "internalType": "address",
          "name": "owner",
          "type": "address"
        },
        {
          "indexed": true,
          "internalType": "address",
          "name": "operator",
          "type": "address"
        },
        {
          "indexed": false,
          "internalType": "bool",
          "name": "approved",
          "type": "bool"
        }
      ],
      "name": "ApprovalForAll",
      "type": "event"
    },
    {
      "anonymous": false,
      "inputs": [
        {
          "indexed": true,
          "internalType": "address",
          "name": "from",
          "type": "address"
        },
        {
          "indexed": true,
          "internalType": "address",
          "name": "to",
          "type": "address"
        },
        {
          "indexed": true,
          "internalType": "uint256",
          "name": "tokenId",
          "type": "uint256"
        }
      ],
      "name": "Transfer",
      "type": "event"
    },
    {
      "inputs": [
        {
          "internalType": "address",
          "name": "to",
          "type": "address"
        },
        {
          "internalType": "uint256",
          "name": "tokenId",
          "type": "uint256"
        }
      ],
      "name": "approve",
      "outputs": [],
      "stateMutability": "nonpayable",
      "type": "function"
    },
    {
      "inputs": [
        {
          "internalType": "address",
          "name": "owner",
          "type": "address"
        }
      ],
      "name": "balanceOf",
      "outputs": [
        {
          "internalType": "uint256",
          "name": "",
          "type": "uint256"
        }
      ],
      "stateMutability": "view",
      "type": "function"
    },
    {
      "inputs": [
        {
          "internalType": "uint256",
          "name": "tokenId",
          "type": "uint256"
        }
      ],
      "name": "getApproved",
      "outputs": [
        {
          "internalType": "address",
          "name": "",
          "type": "address"
        }
      ],
      "stateMutability": "view",
      "type": "function"
    },
    {
      "inputs": [
        {
          "internalType": "uint256",
          "name": "_templateId",
          "type": "uint256"
        }
      ],
      "name": "getTemplate",
      "outputs": [
        {
          "components": [
            {
              "internalType": "address",
              "name": "creatorAddress",
              "type": "address"
            },
            {
              "components": [
                {
                  "internalType": "string",
                  "name": "accessTier",
                  "type": "string"
                },
                {
                  "internalType": "uint256",
                  "name": "price",
                  "type": "uint256"
                },
                {
                  "internalType": "uint256",
                  "name": "term",
                  "type": "uint256"
                }
              ],
              "internalType": "struct SubscriptionNFT.SubscriptionOption",
              "name": "subscriptionOption",
              "type": "tuple"
            }
          ],
          "internalType": "struct SubscriptionNFT.SubscriptionTemplate",
          "name": "",
          "type": "tuple"
        }
      ],
      "stateMutability": "view",
      "type": "function"
    },
    {
      "inputs": [
        {
          "internalType": "address",
          "name": "owner",
          "type": "address"
        },
        {
          "internalType": "address",
          "name": "operator",
          "type": "address"
        }
      ],
      "name": "isApprovedForAll",
      "outputs": [
        {
          "internalType": "bool",
          "name": "",
          "type": "bool"
        }
      ],
      "stateMutability": "view",
      "type": "function"
    },
    {
      "inputs": [],
      "name": "name",
      "outputs": [
        {
          "internalType": "string",
          "name": "",
          "type": "string"
        }
      ],
      "stateMutability": "view",
      "type": "function"
    },
    {
      "inputs": [
        {
          "internalType": "uint256",
          "name": "tokenId",
          "type": "uint256"
        }
      ],
      "name": "ownerOf",
      "outputs": [
        {
          "internalType": "address",
          "name": "",
          "type": "address"
        }
      ],
      "stateMutability": "view",
      "type": "function"
    },
    {
      "inputs": [
        {
          "internalType": "address",
          "name": "from",
          "type": "address"
        },
        {
          "internalType": "address",
          "name": "to",
          "type": "address"
        },
        {
          "internalType": "uint256",
          "name": "tokenId",
          "type": "uint256"
        }
      ],
      "name": "safeTransferFrom",
      "outputs": [],
      "stateMutability": "nonpayable",
      "type": "function"
    },
    {
      "inputs": [
        {
          "internalType": "address",
          "name": "from",
          "type": "address"
        },
        {
          "internalType": "address",
          "name": "to",
          "type": "address"
        },
        {
          "internalType": "uint256",
          "name": "tokenId",
          "type": "uint256"
        },
        {
          "internalType": "bytes",
          "name": "_data",
          "type": "bytes"
        }
      ],
      "name": "safeTransferFrom",
      "outputs": [],
      "stateMutability": "nonpayable",
      "type": "function"
    },
    {
      "inputs": [
        {
          "internalType": "address",
          "name": "operator",
          "type": "address"
        },
        {
          "internalType": "bool",
          "name": "approved",
          "type": "bool"
        }
      ],
      "name": "setApprovalForAll",
      "outputs": [],
      "stateMutability": "nonpayable",
      "type": "function"
    },
    {
      "inputs": [
        {
          "internalType": "bytes4",
          "name": "interfaceId",
          "type": "bytes4"
        }
      ],
      "name": "supportsInterface",
      "outputs": [
        {
          "internalType": "bool",
          "name": "",
          "type": "bool"
        }
      ],
      "stateMutability": "view",
      "type": "function"
    },
    {
      "inputs": [],
      "name": "symbol",
      "outputs": [
        {
          "internalType": "string",
          "name": "",
          "type": "string"
        }
      ],
      "stateMutability": "view",
      "type": "function"
    },
    {
      "inputs": [
        {
          "internalType": "uint256",
          "name": "tokenId",
          "type": "uint256"
        }
      ],
      "name": "tokenURI",
      "outputs": [
        {
          "internalType": "string",
          "name": "",
          "type": "string"
        }
      ],
      "stateMutability": "view",
      "type": "function"
    },
    {
      "inputs": [
        {
          "internalType": "address",
          "name": "from",
          "type": "address"
        },
        {
          "internalType": "address",
          "name": "to",
          "type": "address"
        },
        {
          "internalType": "uint256",
          "name": "tokenId",
          "type": "uint256"
        }
      ],
      "name": "transferFrom",
      "outputs": [],
      "stateMutability": "nonpayable",
      "type": "function"
    }
  ],
  "bytecode": "0x60806040523480156200001157600080fd5b506040518060400160405280600f81526020017f537562736372697074696f6e4e465400000000000000000000000000000000008152506040518060400160405280600381526020017f5355420000000000000000000000000000000000000000000000000000000000815250816000908051906020019062000096929190620000b8565b508060019080519060200190620000af929190620000b8565b505050620001cd565b828054620000c69062000168565b90600052602060002090601f016020900481019282620000ea576000855562000136565b82601f106200010557805160ff191683800117855562000136565b8280016001018555821562000136579182015b828111156200013557825182559160200191906001019062000118565b5b50905062000145919062000149565b5090565b5b80821115620001645760008160009055506001016200014a565b5090565b600060028204905060018216806200018157607f821691505b602082108114156200019857620001976200019e565b5b50919050565b7f4e487b7100000000000000000000000000000000000000000000000000000000600052602260045260246000fd5b61275b80620001dd6000396000f3fe608060405234801561001057600080fd5b50600436106100ea5760003560e01c80636352211e1161008c578063a22cb46511610066578063a22cb4651461026f578063b88d4fde1461028b578063c87b56dd146102a7578063e985e9c5146102d7576100ea565b80636352211e146101f157806370a082311461022157806395d89b4114610251576100ea565b8063095ea7b3116100c8578063095ea7b31461016d57806323b872dd1461018957806331543cf4146101a557806342842e0e146101d5576100ea565b806301ffc9a7146100ef57806306fdde031461011f578063081812fc1461013d575b600080fd5b6101096004803603810190610104919061191e565b610307565b6040516101169190611d7c565b60405180910390f35b6101276103e9565b6040516101349190611d97565b60405180910390f35b61015760048036038101906101529190611970565b61047b565b6040516101649190611d15565b60405180910390f35b610187600480360381019061018291906118e2565b610500565b005b6101a3600480360381019061019e91906117dc565b610618565b005b6101bf60048036038101906101ba9190611970565b610678565b6040516101cc9190611f39565b60405180910390f35b6101ef60048036038101906101ea91906117dc565b610853565b005b61020b60048036038101906102069190611970565b610873565b6040516102189190611d15565b60405180910390f35b61023b60048036038101906102369190611777565b610925565b6040516102489190611f5b565b60405180910390f35b6102596109dd565b6040516102669190611d97565b60405180910390f35b610289600480360381019061028491906118a6565b610a6f565b005b6102a560048036038101906102a0919061182b565b610a85565b005b6102c160048036038101906102bc9190611970565b610ae7565b6040516102ce9190611d97565b60405180910390f35b6102f160048036038101906102ec91906117a0565b610b8e565b6040516102fe9190611d7c565b60405180910390f35b60007f80ac58cd000000000000000000000000000000000000000000000000000000007bffffffffffffffffffffffffffffffffffffffffffffffffffffffff1916827bffffffffffffffffffffffffffffffffffffffffffffffffffffffff191614806103d257507f5b5e139f000000000000000000000000000000000000000000000000000000007bffffffffffffffffffffffffffffffffffffffffffffffffffffffff1916827bffffffffffffffffffffffffffffffffffffffffffffffffffffffff1916145b806103e257506103e182610c22565b5b9050919050565b6060600080546103f890612191565b80601f016020809104026020016040519081016040528092919081815260200182805461042490612191565b80156104715780601f1061044657610100808354040283529160200191610471565b820191906000526020600020905b81548152906001019060200180831161045457829003601f168201915b5050505050905090565b600061048682610c8c565b6104c5576040517f08c379a00000000000000000000000000000000000000000000000000000000081526004016104bc90611eb9565b60405180910390fd5b6004600083815260200190815260200160002060009054906101000a900473ffffffffffffffffffffffffffffffffffffffff169050919050565b600061050b82610873565b90508073ffffffffffffffffffffffffffffffffffffffff168373ffffffffffffffffffffffffffffffffffffffff16141561057c576040517f08c379a000000000000000000000000000000000000000000000000000000000815260040161057390611ef9565b60405180910390fd5b8073ffffffffffffffffffffffffffffffffffffffff1661059b610cf8565b73ffffffffffffffffffffffffffffffffffffffff1614806105ca57506105c9816105c4610cf8565b610b8e565b5b610609576040517f08c379a000000000000000000000000000000000000000000000000000000000815260040161060090611e59565b60405180910390fd5b6106138383610d00565b505050565b610629610623610cf8565b82610db9565b610668576040517f08c379a000000000000000000000000000000000000000000000000000000000815260040161065f90611f19565b60405180910390fd5b610673838383610e97565b505050565b61068061164f565b6000600960008481526020019081526020016000206040518060400160405290816000820160009054906101000a900473ffffffffffffffffffffffffffffffffffffffff1673ffffffffffffffffffffffffffffffffffffffff1673ffffffffffffffffffffffffffffffffffffffff1681526020016001820160405180606001604052908160008201805461071690612191565b80601f016020809104026020016040519081016040528092919081815260200182805461074290612191565b801561078f5780601f106107645761010080835404028352916020019161078f565b820191906000526020600020905b81548152906001019060200180831161077257829003601f168201915b505050505081526020016001820154815260200160028201548152505081525050905033816000019073ffffffffffffffffffffffffffffffffffffffff16908173ffffffffffffffffffffffffffffffffffffffff1681525050600060405180606001604052806040518060400160405280600581526020017f62617369630000000000000000000000000000000000000000000000000000008152508152602001600a8152602001601e81525090508082602001819052508192505050919050565b61086e83838360405180602001604052806000815250610a85565b505050565b6000806002600084815260200190815260200160002060009054906101000a900473ffffffffffffffffffffffffffffffffffffffff169050600073ffffffffffffffffffffffffffffffffffffffff168173ffffffffffffffffffffffffffffffffffffffff16141561091c576040517f08c379a000000000000000000000000000000000000000000000000000000000815260040161091390611e99565b60405180910390fd5b80915050919050565b60008073ffffffffffffffffffffffffffffffffffffffff168273ffffffffffffffffffffffffffffffffffffffff161415610996576040517f08c379a000000000000000000000000000000000000000000000000000000000815260040161098d90611e79565b60405180910390fd5b600360008373ffffffffffffffffffffffffffffffffffffffff1673ffffffffffffffffffffffffffffffffffffffff168152602001908152602001600020549050919050565b6060600180546109ec90612191565b80601f0160208091040260200160405190810160405280929190818152602001828054610a1890612191565b8015610a655780601f10610a3a57610100808354040283529160200191610a65565b820191906000526020600020905b815481529060010190602001808311610a4857829003601f168201915b5050505050905090565b610a81610a7a610cf8565b83836110fe565b5050565b610a96610a90610cf8565b83610db9565b610ad5576040517f08c379a0000000000000000000000000000000000000000000000000000000008152600401610acc90611f19565b60405180910390fd5b610ae18484848461126b565b50505050565b6060610af282610c8c565b610b31576040517f08c379a0000000000000000000000000000000000000000000000000000000008152600401610b2890611ed9565b60405180910390fd5b6000610b3b6112c7565b90506000815111610b5b5760405180602001604052806000815250610b86565b80610b65846112de565b604051602001610b76929190611cf1565b6040516020818303038152906040525b915050919050565b6000600560008473ffffffffffffffffffffffffffffffffffffffff1673ffffffffffffffffffffffffffffffffffffffff16815260200190815260200160002060008373ffffffffffffffffffffffffffffffffffffffff1673ffffffffffffffffffffffffffffffffffffffff16815260200190815260200160002060009054906101000a900460ff16905092915050565b60007f01ffc9a7000000000000000000000000000000000000000000000000000000007bffffffffffffffffffffffffffffffffffffffffffffffffffffffff1916827bffffffffffffffffffffffffffffffffffffffffffffffffffffffff1916149050919050565b60008073ffffffffffffffffffffffffffffffffffffffff166002600084815260200190815260200160002060009054906101000a900473ffffffffffffffffffffffffffffffffffffffff1673ffffffffffffffffffffffffffffffffffffffff1614159050919050565b600033905090565b816004600083815260200190815260200160002060006101000a81548173ffffffffffffffffffffffffffffffffffffffff021916908373ffffffffffffffffffffffffffffffffffffffff160217905550808273ffffffffffffffffffffffffffffffffffffffff16610d7383610873565b73ffffffffffffffffffffffffffffffffffffffff167f8c5be1e5ebec7d5bd14f71427d1e84f3dd0314c0f7b2291e5b200ac8c7c3b92560405160405180910390a45050565b6000610dc482610c8c565b610e03576040517f08c379a0000000000000000000000000000000000000000000000000000000008152600401610dfa90611e39565b60405180910390fd5b6000610e0e83610873565b90508073ffffffffffffffffffffffffffffffffffffffff168473ffffffffffffffffffffffffffffffffffffffff161480610e505750610e4f8185610b8e565b5b80610e8e57508373ffffffffffffffffffffffffffffffffffffffff16610e768461047b565b73ffffffffffffffffffffffffffffffffffffffff16145b91505092915050565b8273ffffffffffffffffffffffffffffffffffffffff16610eb782610873565b73ffffffffffffffffffffffffffffffffffffffff1614610f0d576040517f08c379a0000000000000000000000000000000000000000000000000000000008152600401610f0490611dd9565b60405180910390fd5b600073ffffffffffffffffffffffffffffffffffffffff168273ffffffffffffffffffffffffffffffffffffffff161415610f7d576040517f08c379a0000000000000000000000000000000000000000000000000000000008152600401610f7490611df9565b60405180910390fd5b610f8883838361148b565b610f93600082610d00565b6001600360008573ffffffffffffffffffffffffffffffffffffffff1673ffffffffffffffffffffffffffffffffffffffff1681526020019081526020016000206000828254610fe391906120a7565b925050819055506001600360008473ffffffffffffffffffffffffffffffffffffffff1673ffffffffffffffffffffffffffffffffffffffff168152602001908152602001600020600082825461103a9190612020565b92505081905550816002600083815260200190815260200160002060006101000a81548173ffffffffffffffffffffffffffffffffffffffff021916908373ffffffffffffffffffffffffffffffffffffffff160217905550808273ffffffffffffffffffffffffffffffffffffffff168473ffffffffffffffffffffffffffffffffffffffff167fddf252ad1be2c89b69c2b068fc378daa952ba7f163c4a11628f55a4df523b3ef60405160405180910390a46110f9838383611490565b505050565b8173ffffffffffffffffffffffffffffffffffffffff168373ffffffffffffffffffffffffffffffffffffffff16141561116d576040517f08c379a000000000000000000000000000000000000000000000000000000000815260040161116490611e19565b60405180910390fd5b80600560008573ffffffffffffffffffffffffffffffffffffffff1673ffffffffffffffffffffffffffffffffffffffff16815260200190815260200160002060008473ffffffffffffffffffffffffffffffffffffffff1673ffffffffffffffffffffffffffffffffffffffff16815260200190815260200160002060006101000a81548160ff0219169083151502179055508173ffffffffffffffffffffffffffffffffffffffff168373ffffffffffffffffffffffffffffffffffffffff167f17307eab39ab6107e8899845ad3d59bd9653f200f220920489ca2b5937696c318360405161125e9190611d7c565b60405180910390a3505050565b611276848484610e97565b61128284848484611495565b6112c1576040517f08c379a00000000000000000000000000000000000000000000000000000000081526004016112b890611db9565b60405180910390fd5b50505050565b606060405180602001604052806000815250905090565b60606000821415611326576040518060400160405280600181526020017f30000000000000000000000000000000000000000000000000000000000000008152509050611486565b600082905060005b60008214611358578080611341906121f4565b915050600a826113519190612076565b915061132e565b60008167ffffffffffffffff81111561139a577f4e487b7100000000000000000000000000000000000000000000000000000000600052604160045260246000fd5b6040519080825280601f01601f1916602001820160405280156113cc5781602001600182028036833780820191505090505b5090505b6000851461147f576001826113e591906120a7565b9150600a856113f4919061223d565b60306114009190612020565b60f81b81838151811061143c577f4e487b7100000000000000000000000000000000000000000000000000000000600052603260045260246000fd5b60200101907effffffffffffffffffffffffffffffffffffffffffffffffffffffffffffff1916908160001a905350600a856114789190612076565b94506113d0565b8093505050505b919050565b505050565b505050565b60006114b68473ffffffffffffffffffffffffffffffffffffffff1661162c565b1561161f578373ffffffffffffffffffffffffffffffffffffffff1663150b7a026114df610cf8565b8786866040518563ffffffff1660e01b81526004016115019493929190611d30565b602060405180830381600087803b15801561151b57600080fd5b505af192505050801561154c57506040513d601f19601f820116820180604052508101906115499190611947565b60015b6115cf573d806000811461157c576040519150601f19603f3d011682016040523d82523d6000602084013e611581565b606091505b506000815114156115c7576040517f08c379a00000000000000000000000000000000000000000000000000000000081526004016115be90611db9565b60405180910390fd5b805181602001fd5b63150b7a0260e01b7bffffffffffffffffffffffffffffffffffffffffffffffffffffffff1916817bffffffffffffffffffffffffffffffffffffffffffffffffffffffff191614915050611624565b600190505b949350505050565b6000808273ffffffffffffffffffffffffffffffffffffffff163b119050919050565b6040518060400160405280600073ffffffffffffffffffffffffffffffffffffffff16815260200161167f611685565b81525090565b60405180606001604052806060815260200160008152602001600081525090565b60006116b96116b484611f9b565b611f76565b9050828152602081018484840111156116d157600080fd5b6116dc84828561214f565b509392505050565b6000813590506116f3816126c9565b92915050565b600081359050611708816126e0565b92915050565b60008135905061171d816126f7565b92915050565b600081519050611732816126f7565b92915050565b600082601f83011261174957600080fd5b81356117598482602086016116a6565b91505092915050565b6000813590506117718161270e565b92915050565b60006020828403121561178957600080fd5b6000611797848285016116e4565b91505092915050565b600080604083850312156117b357600080fd5b60006117c1858286016116e4565b92505060206117d2858286016116e4565b9150509250929050565b6000806000606084860312156117f157600080fd5b60006117ff868287016116e4565b9350506020611810868287016116e4565b925050604061182186828701611762565b9150509250925092565b6000806000806080858703121561184157600080fd5b600061184f878288016116e4565b9450506020611860878288016116e4565b935050604061187187828801611762565b925050606085013567ffffffffffffffff81111561188e57600080fd5b61189a87828801611738565b91505092959194509250565b600080604083850312156118b957600080fd5b60006118c7858286016116e4565b92505060206118d8858286016116f9565b9150509250929050565b600080604083850312156118f557600080fd5b6000611903858286016116e4565b925050602061191485828601611762565b9150509250929050565b60006020828403121561193057600080fd5b600061193e8482850161170e565b91505092915050565b60006020828403121561195957600080fd5b600061196784828501611723565b91505092915050565b60006020828403121561198257600080fd5b600061199084828501611762565b91505092915050565b6119a2816120db565b82525050565b6119b1816120db565b82525050565b6119c0816120ed565b82525050565b60006119d182611fcc565b6119db8185611fe2565b93506119eb81856020860161215e565b6119f48161232a565b840191505092915050565b6000611a0a82611fd7565b611a148185611ff3565b9350611a2481856020860161215e565b611a2d8161232a565b840191505092915050565b6000611a4382611fd7565b611a4d8185612004565b9350611a5d81856020860161215e565b611a668161232a565b840191505092915050565b6000611a7c82611fd7565b611a868185612015565b9350611a9681856020860161215e565b80840191505092915050565b6000611aaf603283612004565b9150611aba8261233b565b604082019050919050565b6000611ad2602583612004565b9150611add8261238a565b604082019050919050565b6000611af5602483612004565b9150611b00826123d9565b604082019050919050565b6000611b18601983612004565b9150611b2382612428565b602082019050919050565b6000611b3b602c83612004565b9150611b4682612451565b604082019050919050565b6000611b5e603883612004565b9150611b69826124a0565b604082019050919050565b6000611b81602a83612004565b9150611b8c826124ef565b604082019050919050565b6000611ba4602983612004565b9150611baf8261253e565b604082019050919050565b6000611bc7602c83612004565b9150611bd28261258d565b604082019050919050565b6000611bea602f83612004565b9150611bf5826125dc565b604082019050919050565b6000611c0d602183612004565b9150611c188261262b565b604082019050919050565b6000611c30603183612004565b9150611c3b8261267a565b604082019050919050565b60006060830160008301518482036000860152611c6382826119ff565b9150506020830151611c786020860182611cd3565b506040830151611c8b6040860182611cd3565b508091505092915050565b6000604083016000830151611cae6000860182611999565b5060208301518482036020860152611cc68282611c46565b9150508091505092915050565b611cdc81612145565b82525050565b611ceb81612145565b82525050565b6000611cfd8285611a71565b9150611d098284611a71565b91508190509392505050565b6000602082019050611d2a60008301846119a8565b92915050565b6000608082019050611d4560008301876119a8565b611d5260208301866119a8565b611d5f6040830185611ce2565b8181036060830152611d7181846119c6565b905095945050505050565b6000602082019050611d9160008301846119b7565b92915050565b60006020820190508181036000830152611db18184611a38565b905092915050565b60006020820190508181036000830152611dd281611aa2565b9050919050565b60006020820190508181036000830152611df281611ac5565b9050919050565b60006020820190508181036000830152611e1281611ae8565b9050919050565b60006020820190508181036000830152611e3281611b0b565b9050919050565b60006020820190508181036000830152611e5281611b2e565b9050919050565b60006020820190508181036000830152611e7281611b51565b9050919050565b60006020820190508181036000830152611e9281611b74565b9050919050565b60006020820190508181036000830152611eb281611b97565b9050919050565b60006020820190508181036000830152611ed281611bba565b9050919050565b60006020820190508181036000830152611ef281611bdd565b9050919050565b60006020820190508181036000830152611f1281611c00565b9050919050565b60006020820190508181036000830152611f3281611c23565b9050919050565b60006020820190508181036000830152611f538184611c96565b905092915050565b6000602082019050611f706000830184611ce2565b92915050565b6000611f80611f91565b9050611f8c82826121c3565b919050565b6000604051905090565b600067ffffffffffffffff821115611fb657611fb56122fb565b5b611fbf8261232a565b9050602081019050919050565b600081519050919050565b600081519050919050565b600082825260208201905092915050565b600082825260208201905092915050565b600082825260208201905092915050565b600081905092915050565b600061202b82612145565b915061203683612145565b9250827fffffffffffffffffffffffffffffffffffffffffffffffffffffffffffffffff0382111561206b5761206a61226e565b5b828201905092915050565b600061208182612145565b915061208c83612145565b92508261209c5761209b61229d565b5b828204905092915050565b60006120b282612145565b91506120bd83612145565b9250828210156120d0576120cf61226e565b5b828203905092915050565b60006120e682612125565b9050919050565b60008115159050919050565b60007fffffffff0000000000000000000000000000000000000000000000000000000082169050919050565b600073ffffffffffffffffffffffffffffffffffffffff82169050919050565b6000819050919050565b82818337600083830152505050565b60005b8381101561217c578082015181840152602081019050612161565b8381111561218b576000848401525b50505050565b600060028204905060018216806121a957607f821691505b602082108114156121bd576121bc6122cc565b5b50919050565b6121cc8261232a565b810181811067ffffffffffffffff821117156121eb576121ea6122fb565b5b80604052505050565b60006121ff82612145565b91507fffffffffffffffffffffffffffffffffffffffffffffffffffffffffffffffff8214156122325761223161226e565b5b600182019050919050565b600061224882612145565b915061225383612145565b9250826122635761226261229d565b5b828206905092915050565b7f4e487b7100000000000000000000000000000000000000000000000000000000600052601160045260246000fd5b7f4e487b7100000000000000000000000000000000000000000000000000000000600052601260045260246000fd5b7f4e487b7100000000000000000000000000000000000000000000000000000000600052602260045260246000fd5b7f4e487b7100000000000000000000000000000000000000000000000000000000600052604160045260246000fd5b6000601f19601f8301169050919050565b7f4552433732313a207472616e7366657220746f206e6f6e20455243373231526560008201527f63656976657220696d706c656d656e7465720000000000000000000000000000602082015250565b7f4552433732313a207472616e736665722066726f6d20696e636f72726563742060008201527f6f776e6572000000000000000000000000000000000000000000000000000000602082015250565b7f4552433732313a207472616e7366657220746f20746865207a65726f2061646460008201527f7265737300000000000000000000000000000000000000000000000000000000602082015250565b7f4552433732313a20617070726f766520746f2063616c6c657200000000000000600082015250565b7f4552433732313a206f70657261746f7220717565727920666f72206e6f6e657860008201527f697374656e7420746f6b656e0000000000000000000000000000000000000000602082015250565b7f4552433732313a20617070726f76652063616c6c6572206973206e6f74206f7760008201527f6e6572206e6f7220617070726f76656420666f7220616c6c0000000000000000602082015250565b7f4552433732313a2062616c616e636520717565727920666f7220746865207a6560008201527f726f206164647265737300000000000000000000000000000000000000000000602082015250565b7f4552433732313a206f776e657220717565727920666f72206e6f6e657869737460008201527f656e7420746f6b656e0000000000000000000000000000000000000000000000602082015250565b7f4552433732313a20617070726f76656420717565727920666f72206e6f6e657860008201527f697374656e7420746f6b656e0000000000000000000000000000000000000000602082015250565b7f4552433732314d657461646174613a2055524920717565727920666f72206e6f60008201527f6e6578697374656e7420746f6b656e0000000000000000000000000000000000602082015250565b7f4552433732313a20617070726f76616c20746f2063757272656e74206f776e6560008201527f7200000000000000000000000000000000000000000000000000000000000000602082015250565b7f4552433732313a207472616e736665722063616c6c6572206973206e6f74206f60008201527f776e6572206e6f7220617070726f766564000000000000000000000000000000602082015250565b6126d2816120db565b81146126dd57600080fd5b50565b6126e9816120ed565b81146126f457600080fd5b50565b612700816120f9565b811461270b57600080fd5b50565b61271781612145565b811461272257600080fd5b5056fea2646970667358221220bbb369f0849d8d84b4d649d6ed89a2bad4515241d030e6ae9d4609316be19b7964736f6c63430008040033",
  "linkReferences": {},
  "deployedLinkReferences": {}
}