{
  "_format": "hh-sol-artifact-1",
  "contractName": "SubscriptionNFT",
  "sourceName": "contracts/SubscriptionNFT.sol",
  "abi": [
    {
      "inputs": [],
      "stateMutability": "nonpayable",
      "type": "constructor"
    },
    {
      "anonymous": false,
      "inputs": [
        {
          "indexed": false,
          "internalType": "string",
          "name": "subscriptionName",
          "type": "string"
        },
        {
          "indexed": false,
          "internalType": "uint256",
          "name": "price",
          "type": "uint256"
        },
        {
          "indexed": false,
          "internalType": "uint256",
          "name": "term",
          "type": "uint256"
        }
      ],
      "name": "Added",
      "type": "event"
    },
    {
      "anonymous": false,
      "inputs": [
        {
          "indexed": true,
          "internalType": "address",
          "name": "owner",
          "type": "address"
        },
        {
          "indexed": true,
          "internalType": "address",
          "name": "approved",
          "type": "address"
        },
        {
          "indexed": true,
          "internalType": "uint256",
          "name": "tokenId",
          "type": "uint256"
        }
      ],
      "name": "Approval",
      "type": "event"
    },
    {
      "anonymous": false,
      "inputs": [
        {
          "indexed": true,
          "internalType": "address",
          "name": "owner",
          "type": "address"
        },
        {
          "indexed": true,
          "internalType": "address",
          "name": "operator",
          "type": "address"
        },
        {
          "indexed": false,
          "internalType": "bool",
          "name": "approved",
          "type": "bool"
        }
      ],
      "name": "ApprovalForAll",
      "type": "event"
    },
    {
      "anonymous": false,
      "inputs": [
        {
          "indexed": false,
          "internalType": "address",
          "name": "recipient",
          "type": "address"
        },
        {
          "indexed": false,
          "internalType": "uint256",
          "name": "subscriptionTemplateId",
          "type": "uint256"
        }
      ],
      "name": "Issued",
      "type": "event"
    },
    {
      "anonymous": false,
      "inputs": [
        {
          "indexed": true,
          "internalType": "address",
          "name": "from",
          "type": "address"
        },
        {
          "indexed": true,
          "internalType": "address",
          "name": "to",
          "type": "address"
        },
        {
          "indexed": true,
          "internalType": "uint256",
          "name": "tokenId",
          "type": "uint256"
        }
      ],
      "name": "Transfer",
      "type": "event"
    },
    {
      "inputs": [
        {
          "internalType": "address",
          "name": "to",
          "type": "address"
        },
        {
          "internalType": "uint256",
          "name": "tokenId",
          "type": "uint256"
        }
      ],
      "name": "approve",
      "outputs": [],
      "stateMutability": "nonpayable",
      "type": "function"
    },
    {
      "inputs": [
        {
          "internalType": "address",
          "name": "owner",
          "type": "address"
        }
      ],
      "name": "balanceOf",
      "outputs": [
        {
          "internalType": "uint256",
          "name": "",
          "type": "uint256"
        }
      ],
      "stateMutability": "view",
      "type": "function"
    },
    {
      "inputs": [
        {
          "internalType": "string",
          "name": "subscriptionName",
          "type": "string"
        },
        {
          "internalType": "uint256",
          "name": "price",
          "type": "uint256"
        },
        {
          "internalType": "uint256",
          "name": "term",
          "type": "uint256"
        }
      ],
      "name": "createSubscriptionTemplate",
      "outputs": [
        {
          "internalType": "uint256",
          "name": "",
          "type": "uint256"
        }
      ],
      "stateMutability": "nonpayable",
      "type": "function"
    },
    {
      "inputs": [
        {
          "internalType": "uint256",
          "name": "tokenId",
          "type": "uint256"
        }
      ],
      "name": "getAggregatedTokenData",
      "outputs": [
        {
          "components": [
            {
              "internalType": "uint256",
              "name": "tokenId",
              "type": "uint256"
            },
            {
              "internalType": "address",
              "name": "ownerAddress",
              "type": "address"
            },
            {
              "internalType": "bool",
              "name": "expired",
              "type": "bool"
            },
            {
              "components": [
                {
                  "internalType": "uint256",
                  "name": "subscriptionTemplateId",
                  "type": "uint256"
                },
                {
                  "internalType": "uint256",
                  "name": "expirationTime",
                  "type": "uint256"
                }
              ],
              "internalType": "struct SubscriptionNFT.TokenData",
              "name": "tokenData",
              "type": "tuple"
            },
            {
              "components": [
                {
                  "internalType": "address",
                  "name": "creatorAddress",
                  "type": "address"
                },
                {
                  "internalType": "string",
                  "name": "subscriptionName",
                  "type": "string"
                },
                {
                  "internalType": "uint256",
                  "name": "price",
                  "type": "uint256"
                },
                {
                  "internalType": "uint256",
                  "name": "term",
                  "type": "uint256"
                }
              ],
              "internalType": "struct SubscriptionNFT.SubscriptionTemplate",
              "name": "subscriptionData",
              "type": "tuple"
            }
          ],
          "internalType": "struct SubscriptionNFT.AggregatedTokenData",
          "name": "",
          "type": "tuple"
        }
      ],
      "stateMutability": "view",
      "type": "function"
    },
    {
      "inputs": [
        {
          "internalType": "uint256",
          "name": "tokenId",
          "type": "uint256"
        }
      ],
      "name": "getApproved",
      "outputs": [
        {
          "internalType": "address",
          "name": "",
          "type": "address"
        }
      ],
      "stateMutability": "view",
      "type": "function"
    },
    {
      "inputs": [],
      "name": "getOwnerSubscriptions",
      "outputs": [
        {
          "components": [
            {
              "internalType": "uint256",
              "name": "subscriptionTemplateId",
              "type": "uint256"
            },
            {
              "internalType": "uint256",
              "name": "expirationTime",
              "type": "uint256"
            }
          ],
          "internalType": "struct SubscriptionNFT.TokenData[]",
          "name": "",
          "type": "tuple[]"
        }
      ],
      "stateMutability": "view",
      "type": "function"
    },
    {
      "inputs": [
        {
          "internalType": "address",
          "name": "owner",
          "type": "address"
        },
        {
          "internalType": "address",
          "name": "operator",
          "type": "address"
        }
      ],
      "name": "isApprovedForAll",
      "outputs": [
        {
          "internalType": "bool",
          "name": "",
          "type": "bool"
        }
      ],
      "stateMutability": "view",
      "type": "function"
    },
    {
      "inputs": [
        {
          "internalType": "uint256",
          "name": "subscriptionTemplateId",
          "type": "uint256"
        }
      ],
      "name": "issueSubscriptionNFT",
      "outputs": [
        {
          "internalType": "uint256",
          "name": "",
          "type": "uint256"
        }
      ],
      "stateMutability": "payable",
      "type": "function"
    },
    {
      "inputs": [],
      "name": "name",
      "outputs": [
        {
          "internalType": "string",
          "name": "",
          "type": "string"
        }
      ],
      "stateMutability": "view",
      "type": "function"
    },
    {
      "inputs": [
        {
          "internalType": "uint256",
          "name": "tokenId",
          "type": "uint256"
        }
      ],
      "name": "ownerOf",
      "outputs": [
        {
          "internalType": "address",
          "name": "",
          "type": "address"
        }
      ],
      "stateMutability": "view",
      "type": "function"
    },
    {
      "inputs": [
        {
          "internalType": "address",
          "name": "",
          "type": "address"
        },
        {
          "internalType": "uint256",
          "name": "",
          "type": "uint256"
        }
      ],
      "name": "ownerSubscriptions",
      "outputs": [
        {
          "internalType": "uint256",
          "name": "subscriptionTemplateId",
          "type": "uint256"
        },
        {
          "internalType": "uint256",
          "name": "expirationTime",
          "type": "uint256"
        }
      ],
      "stateMutability": "view",
      "type": "function"
    },
    {
      "inputs": [
        {
          "internalType": "address",
          "name": "from",
          "type": "address"
        },
        {
          "internalType": "address",
          "name": "to",
          "type": "address"
        },
        {
          "internalType": "uint256",
          "name": "tokenId",
          "type": "uint256"
        }
      ],
      "name": "safeTransferFrom",
      "outputs": [],
      "stateMutability": "nonpayable",
      "type": "function"
    },
    {
      "inputs": [
        {
          "internalType": "address",
          "name": "from",
          "type": "address"
        },
        {
          "internalType": "address",
          "name": "to",
          "type": "address"
        },
        {
          "internalType": "uint256",
          "name": "tokenId",
          "type": "uint256"
        },
        {
          "internalType": "bytes",
          "name": "_data",
          "type": "bytes"
        }
      ],
      "name": "safeTransferFrom",
      "outputs": [],
      "stateMutability": "nonpayable",
      "type": "function"
    },
    {
      "inputs": [
        {
          "internalType": "address",
          "name": "operator",
          "type": "address"
        },
        {
          "internalType": "bool",
          "name": "approved",
          "type": "bool"
        }
      ],
      "name": "setApprovalForAll",
      "outputs": [],
      "stateMutability": "nonpayable",
      "type": "function"
    },
    {
      "inputs": [
        {
          "internalType": "uint256",
          "name": "",
          "type": "uint256"
        }
      ],
      "name": "subscriptionTemplates",
      "outputs": [
        {
          "internalType": "address",
          "name": "creatorAddress",
          "type": "address"
        },
        {
          "internalType": "string",
          "name": "subscriptionName",
          "type": "string"
        },
        {
          "internalType": "uint256",
          "name": "price",
          "type": "uint256"
        },
        {
          "internalType": "uint256",
          "name": "term",
          "type": "uint256"
        }
      ],
      "stateMutability": "view",
      "type": "function"
    },
    {
      "inputs": [
        {
          "internalType": "bytes4",
          "name": "interfaceId",
          "type": "bytes4"
        }
      ],
      "name": "supportsInterface",
      "outputs": [
        {
          "internalType": "bool",
          "name": "",
          "type": "bool"
        }
      ],
      "stateMutability": "view",
      "type": "function"
    },
    {
      "inputs": [],
      "name": "symbol",
      "outputs": [
        {
          "internalType": "string",
          "name": "",
          "type": "string"
        }
      ],
      "stateMutability": "view",
      "type": "function"
    },
    {
      "inputs": [
        {
          "internalType": "uint256",
          "name": "tokenId",
          "type": "uint256"
        }
      ],
      "name": "tokenURI",
      "outputs": [
        {
          "internalType": "string",
          "name": "",
          "type": "string"
        }
      ],
      "stateMutability": "view",
      "type": "function"
    },
    {
      "inputs": [
        {
          "internalType": "address",
          "name": "from",
          "type": "address"
        },
        {
          "internalType": "address",
          "name": "to",
          "type": "address"
        },
        {
          "internalType": "uint256",
          "name": "tokenId",
          "type": "uint256"
        }
      ],
      "name": "transferFrom",
      "outputs": [],
      "stateMutability": "nonpayable",
      "type": "function"
    }
  ],
  "bytecode": "0x60806040523480156200001157600080fd5b506040518060400160405280600f81526020017f537562736372697074696f6e4e465400000000000000000000000000000000008152506040518060400160405280600381526020017f5355420000000000000000000000000000000000000000000000000000000000815250816000908051906020019062000096929190620000b8565b508060019080519060200190620000af929190620000b8565b505050620001cd565b828054620000c69062000168565b90600052602060002090601f016020900481019282620000ea576000855562000136565b82601f106200010557805160ff191683800117855562000136565b8280016001018555821562000136579182015b828111156200013557825182559160200191906001019062000118565b5b50905062000145919062000149565b5090565b5b80821115620001645760008160009055506001016200014a565b5090565b600060028204905060018216806200018157607f821691505b602082108114156200019857620001976200019e565b5b50919050565b7f4e487b7100000000000000000000000000000000000000000000000000000000600052602260045260246000fd5b613a2c80620001dd6000396000f3fe6080604052600436106101145760003560e01c806370a08231116100a0578063a22cb46511610064578063a22cb465146103f4578063b88d4fde1461041d578063bb6e805014610446578063c87b56dd14610483578063e985e9c5146104c057610114565b806370a08231146102e657806378f2e164146103235780637e711d381461034e578063852731241461038b57806395d89b41146103c957610114565b806323b872dd116100e757806323b872dd146101e757806338da41de1461021057806342842e0e14610250578063532137d6146102795780636352211e146102a957610114565b806301ffc9a71461011957806306fdde0314610156578063081812fc14610181578063095ea7b3146101be575b600080fd5b34801561012557600080fd5b50610140600480360381019061013b9190612672565b6104fd565b60405161014d9190612da0565b60405180910390f35b34801561016257600080fd5b5061016b6105df565b6040516101789190612dbb565b60405180910390f35b34801561018d57600080fd5b506101a860048036038101906101a3919061272b565b610671565b6040516101b59190612ca2565b60405180910390f35b3480156101ca57600080fd5b506101e560048036038101906101e09190612636565b6106f6565b005b3480156101f357600080fd5b5061020e60048036038101906102099190612530565b61080e565b005b34801561021c57600080fd5b506102376004803603810190610232919061272b565b61086e565b6040516102479493929190612d09565b60405180910390f35b34801561025c57600080fd5b5061027760048036038101906102729190612530565b610946565b005b610293600480360381019061028e919061272b565b610966565b6040516102a0919061307d565b60405180910390f35b3480156102b557600080fd5b506102d060048036038101906102cb919061272b565b610d96565b6040516102dd9190612ca2565b60405180910390f35b3480156102f257600080fd5b5061030d600480360381019061030891906124cb565b610e48565b60405161031a919061307d565b60405180910390f35b34801561032f57600080fd5b50610338610f00565b6040516103459190612d7e565b60405180910390f35b34801561035a57600080fd5b506103756004803603810190610370919061272b565b610fb6565b604051610382919061305b565b60405180910390f35b34801561039757600080fd5b506103b260048036038101906103ad9190612636565b611166565b6040516103c0929190613098565b60405180910390f35b3480156103d557600080fd5b506103de6111a7565b6040516103eb9190612dbb565b60405180910390f35b34801561040057600080fd5b5061041b600480360381019061041691906125fa565b611239565b005b34801561042957600080fd5b50610444600480360381019061043f919061257f565b61124f565b005b34801561045257600080fd5b5061046d600480360381019061046891906126c4565b6112b1565b60405161047a919061307d565b60405180910390f35b34801561048f57600080fd5b506104aa60048036038101906104a5919061272b565b6114de565b6040516104b79190612dbb565b60405180910390f35b3480156104cc57600080fd5b506104e760048036038101906104e291906124f4565b611585565b6040516104f49190612da0565b60405180910390f35b60007f80ac58cd000000000000000000000000000000000000000000000000000000007bffffffffffffffffffffffffffffffffffffffffffffffffffffffff1916827bffffffffffffffffffffffffffffffffffffffffffffffffffffffff191614806105c857507f5b5e139f000000000000000000000000000000000000000000000000000000007bffffffffffffffffffffffffffffffffffffffffffffffffffffffff1916827bffffffffffffffffffffffffffffffffffffffffffffffffffffffff1916145b806105d857506105d782611619565b5b9050919050565b6060600080546105ee90613346565b80601f016020809104026020016040519081016040528092919081815260200182805461061a90613346565b80156106675780601f1061063c57610100808354040283529160200191610667565b820191906000526020600020905b81548152906001019060200180831161064a57829003601f168201915b5050505050905090565b600061067c82611683565b6106bb576040517f08c379a00000000000000000000000000000000000000000000000000000000081526004016106b290612fbb565b60405180910390fd5b6004600083815260200190815260200160002060009054906101000a900473ffffffffffffffffffffffffffffffffffffffff169050919050565b600061070182610d96565b90508073ffffffffffffffffffffffffffffffffffffffff168373ffffffffffffffffffffffffffffffffffffffff161415610772576040517f08c379a000000000000000000000000000000000000000000000000000000000815260040161076990612ffb565b60405180910390fd5b8073ffffffffffffffffffffffffffffffffffffffff166107916116ef565b73ffffffffffffffffffffffffffffffffffffffff1614806107c057506107bf816107ba6116ef565b611585565b5b6107ff576040517f08c379a00000000000000000000000000000000000000000000000000000000081526004016107f690612f1b565b60405180910390fd5b61080983836116f7565b505050565b61081f6108196116ef565b826117b0565b61085e576040517f08c379a00000000000000000000000000000000000000000000000000000000081526004016108559061301b565b60405180910390fd5b61086983838361188e565b505050565b600a6020528060005260406000206000915090508060000160009054906101000a900473ffffffffffffffffffffffffffffffffffffffff16908060010180546108b790613346565b80601f01602080910402602001604051908101604052809291908181526020018280546108e390613346565b80156109305780601f1061090557610100808354040283529160200191610930565b820191906000526020600020905b81548152906001019060200180831161091357829003601f168201915b5050505050908060020154908060030154905084565b6109618383836040518060200160405280600081525061124f565b505050565b60008073ffffffffffffffffffffffffffffffffffffffff16600a600084815260200190815260200160002060000160009054906101000a900473ffffffffffffffffffffffffffffffffffffffff1673ffffffffffffffffffffffffffffffffffffffff161415610a0d576040517f08c379a0000000000000000000000000000000000000000000000000000000008152600401610a0490612f7b565b60405180910390fd5b6000600a60008481526020019081526020016000206040518060800160405290816000820160009054906101000a900473ffffffffffffffffffffffffffffffffffffffff1673ffffffffffffffffffffffffffffffffffffffff1673ffffffffffffffffffffffffffffffffffffffff168152602001600182018054610a9390613346565b80601f0160208091040260200160405190810160405280929190818152602001828054610abf90613346565b8015610b0c5780601f10610ae157610100808354040283529160200191610b0c565b820191906000526020600020905b815481529060010190602001808311610aef57829003601f168201915b50505050508152602001600282015481526020016003820154815250509050610b356006611af5565b6000610b416006611b0b565b9050610b4d3382611b19565b6000600a60008681526020019081526020016000206040518060800160405290816000820160009054906101000a900473ffffffffffffffffffffffffffffffffffffffff1673ffffffffffffffffffffffffffffffffffffffff1673ffffffffffffffffffffffffffffffffffffffff168152602001600182018054610bd390613346565b80601f0160208091040260200160405190810160405280929190818152602001828054610bff90613346565b8015610c4c5780601f10610c2157610100808354040283529160200191610c4c565b820191906000526020600020905b815481529060010190602001808311610c2f57829003601f168201915b50505050508152602001600282015481526020016003820154815250509050846008600084815260200190815260200160002060000181905550826060015142610c9691906131d5565b6008600084815260200190815260200160002060010181905550600960003373ffffffffffffffffffffffffffffffffffffffff1673ffffffffffffffffffffffffffffffffffffffff1681526020019081526020016000206040518060400160405280878152602001836060015142610d1091906131d5565b8152509080600181540180825580915050600190039060005260206000209060020201600090919091909150600082015181600001556020820151816001015550507fa59f12e354e8cd10bb74c559844c2dd69a5458e31fe56c7594c62ca57480509a3386604051610d83929190612d55565b60405180910390a1819350505050919050565b6000806002600084815260200190815260200160002060009054906101000a900473ffffffffffffffffffffffffffffffffffffffff169050600073ffffffffffffffffffffffffffffffffffffffff168173ffffffffffffffffffffffffffffffffffffffff161415610e3f576040517f08c379a0000000000000000000000000000000000000000000000000000000008152600401610e3690612f5b565b60405180910390fd5b80915050919050565b60008073ffffffffffffffffffffffffffffffffffffffff168273ffffffffffffffffffffffffffffffffffffffff161415610eb9576040517f08c379a0000000000000000000000000000000000000000000000000000000008152600401610eb090612f3b565b60405180910390fd5b600360008373ffffffffffffffffffffffffffffffffffffffff1673ffffffffffffffffffffffffffffffffffffffff168152602001908152602001600020549050919050565b60606000600960003373ffffffffffffffffffffffffffffffffffffffff1673ffffffffffffffffffffffffffffffffffffffff168152602001908152602001600020805480602002602001604051908101604052809291908181526020016000905b82821015610fa957838290600052602060002090600202016040518060400160405290816000820154815260200160018201548152505081526020019060010190610f63565b5050505090508091505090565b610fbe612244565b6000600860008481526020019081526020016000206040518060400160405290816000820154815260200160018201548152505090506040518060a0016040528084815260200161100e85610d96565b73ffffffffffffffffffffffffffffffffffffffff1681526020014283602001511015158152602001828152602001600a6000846000015181526020019081526020016000206040518060800160405290816000820160009054906101000a900473ffffffffffffffffffffffffffffffffffffffff1673ffffffffffffffffffffffffffffffffffffffff1673ffffffffffffffffffffffffffffffffffffffff1681526020016001820180546110c590613346565b80601f01602080910402602001604051908101604052809291908181526020018280546110f190613346565b801561113e5780601f106111135761010080835404028352916020019161113e565b820191906000526020600020905b81548152906001019060200180831161112157829003601f168201915b5050505050815260200160028201548152602001600382015481525050815250915050919050565b6009602052816000526040600020818154811061118257600080fd5b9060005260206000209060020201600091509150508060000154908060010154905082565b6060600180546111b690613346565b80601f01602080910402602001604051908101604052809291908181526020018280546111e290613346565b801561122f5780601f106112045761010080835404028352916020019161122f565b820191906000526020600020905b81548152906001019060200180831161121257829003601f168201915b5050505050905090565b61124b6112446116ef565b8383611cf3565b5050565b61126061125a6116ef565b836117b0565b61129f576040517f08c379a00000000000000000000000000000000000000000000000000000000081526004016112969061301b565b60405180910390fd5b6112ab84848484611e60565b50505050565b6000603c8214806112c457506228206f82145b806112d257506301e1853e82145b611311576040517f08c379a000000000000000000000000000000000000000000000000000000000815260040161130890612efb565b60405180910390fd5b60008311801561132a575069d3c21bcecceda100000083105b611369576040517f08c379a00000000000000000000000000000000000000000000000000000000081526004016113609061303b565b60405180910390fd5b6000845111801561137c57506020845111155b6113bb576040517f08c379a00000000000000000000000000000000000000000000000000000000081526004016113b290612e1b565b60405180910390fd5b6113c56007611af5565b60006113d16007611b0b565b905060405180608001604052803373ffffffffffffffffffffffffffffffffffffffff16815260200186815260200185815260200184815250600a600083815260200190815260200160002060008201518160000160006101000a81548173ffffffffffffffffffffffffffffffffffffffff021916908373ffffffffffffffffffffffffffffffffffffffff1602179055506020820151816001019080519060200190611480929190612297565b5060408201518160020155606082015181600301559050507f837102bfa3fa1437554712a20c1c1d67b6689aa3f9739b4fb7cb2d1eab97a2b98585856040516114cb93929190612ddd565b60405180910390a1809150509392505050565b60606114e982611683565b611528576040517f08c379a000000000000000000000000000000000000000000000000000000000815260040161151f90612fdb565b60405180910390fd5b6000611532611ebc565b90506000815111611552576040518060200160405280600081525061157d565b8061155c84611ed3565b60405160200161156d929190612c7e565b6040516020818303038152906040525b915050919050565b6000600560008473ffffffffffffffffffffffffffffffffffffffff1673ffffffffffffffffffffffffffffffffffffffff16815260200190815260200160002060008373ffffffffffffffffffffffffffffffffffffffff1673ffffffffffffffffffffffffffffffffffffffff16815260200190815260200160002060009054906101000a900460ff16905092915050565b60007f01ffc9a7000000000000000000000000000000000000000000000000000000007bffffffffffffffffffffffffffffffffffffffffffffffffffffffff1916827bffffffffffffffffffffffffffffffffffffffffffffffffffffffff1916149050919050565b60008073ffffffffffffffffffffffffffffffffffffffff166002600084815260200190815260200160002060009054906101000a900473ffffffffffffffffffffffffffffffffffffffff1673ffffffffffffffffffffffffffffffffffffffff1614159050919050565b600033905090565b816004600083815260200190815260200160002060006101000a81548173ffffffffffffffffffffffffffffffffffffffff021916908373ffffffffffffffffffffffffffffffffffffffff160217905550808273ffffffffffffffffffffffffffffffffffffffff1661176a83610d96565b73ffffffffffffffffffffffffffffffffffffffff167f8c5be1e5ebec7d5bd14f71427d1e84f3dd0314c0f7b2291e5b200ac8c7c3b92560405160405180910390a45050565b60006117bb82611683565b6117fa576040517f08c379a00000000000000000000000000000000000000000000000000000000081526004016117f190612edb565b60405180910390fd5b600061180583610d96565b90508073ffffffffffffffffffffffffffffffffffffffff168473ffffffffffffffffffffffffffffffffffffffff16148061184757506118468185611585565b5b8061188557508373ffffffffffffffffffffffffffffffffffffffff1661186d84610671565b73ffffffffffffffffffffffffffffffffffffffff16145b91505092915050565b8273ffffffffffffffffffffffffffffffffffffffff166118ae82610d96565b73ffffffffffffffffffffffffffffffffffffffff1614611904576040517f08c379a00000000000000000000000000000000000000000000000000000000081526004016118fb90612e5b565b60405180910390fd5b600073ffffffffffffffffffffffffffffffffffffffff168273ffffffffffffffffffffffffffffffffffffffff161415611974576040517f08c379a000000000000000000000000000000000000000000000000000000000815260040161196b90612e9b565b60405180910390fd5b61197f838383612080565b61198a6000826116f7565b6001600360008573ffffffffffffffffffffffffffffffffffffffff1673ffffffffffffffffffffffffffffffffffffffff16815260200190815260200160002060008282546119da919061325c565b925050819055506001600360008473ffffffffffffffffffffffffffffffffffffffff1673ffffffffffffffffffffffffffffffffffffffff1681526020019081526020016000206000828254611a3191906131d5565b92505081905550816002600083815260200190815260200160002060006101000a81548173ffffffffffffffffffffffffffffffffffffffff021916908373ffffffffffffffffffffffffffffffffffffffff160217905550808273ffffffffffffffffffffffffffffffffffffffff168473ffffffffffffffffffffffffffffffffffffffff167fddf252ad1be2c89b69c2b068fc378daa952ba7f163c4a11628f55a4df523b3ef60405160405180910390a4611af0838383612085565b505050565b6001816000016000828254019250508190555050565b600081600001549050919050565b600073ffffffffffffffffffffffffffffffffffffffff168273ffffffffffffffffffffffffffffffffffffffff161415611b89576040517f08c379a0000000000000000000000000000000000000000000000000000000008152600401611b8090612f9b565b60405180910390fd5b611b9281611683565b15611bd2576040517f08c379a0000000000000000000000000000000000000000000000000000000008152600401611bc990612e7b565b60405180910390fd5b611bde60008383612080565b6001600360008473ffffffffffffffffffffffffffffffffffffffff1673ffffffffffffffffffffffffffffffffffffffff1681526020019081526020016000206000828254611c2e91906131d5565b92505081905550816002600083815260200190815260200160002060006101000a81548173ffffffffffffffffffffffffffffffffffffffff021916908373ffffffffffffffffffffffffffffffffffffffff160217905550808273ffffffffffffffffffffffffffffffffffffffff16600073ffffffffffffffffffffffffffffffffffffffff167fddf252ad1be2c89b69c2b068fc378daa952ba7f163c4a11628f55a4df523b3ef60405160405180910390a4611cef60008383612085565b5050565b8173ffffffffffffffffffffffffffffffffffffffff168373ffffffffffffffffffffffffffffffffffffffff161415611d62576040517f08c379a0000000000000000000000000000000000000000000000000000000008152600401611d5990612ebb565b60405180910390fd5b80600560008573ffffffffffffffffffffffffffffffffffffffff1673ffffffffffffffffffffffffffffffffffffffff16815260200190815260200160002060008473ffffffffffffffffffffffffffffffffffffffff1673ffffffffffffffffffffffffffffffffffffffff16815260200190815260200160002060006101000a81548160ff0219169083151502179055508173ffffffffffffffffffffffffffffffffffffffff168373ffffffffffffffffffffffffffffffffffffffff167f17307eab39ab6107e8899845ad3d59bd9653f200f220920489ca2b5937696c3183604051611e539190612da0565b60405180910390a3505050565b611e6b84848461188e565b611e778484848461208a565b611eb6576040517f08c379a0000000000000000000000000000000000000000000000000000000008152600401611ead90612e3b565b60405180910390fd5b50505050565b606060405180602001604052806000815250905090565b60606000821415611f1b576040518060400160405280600181526020017f3000000000000000000000000000000000000000000000000000000000000000815250905061207b565b600082905060005b60008214611f4d578080611f36906133a9565b915050600a82611f46919061322b565b9150611f23565b60008167ffffffffffffffff811115611f8f577f4e487b7100000000000000000000000000000000000000000000000000000000600052604160045260246000fd5b6040519080825280601f01601f191660200182016040528015611fc15781602001600182028036833780820191505090505b5090505b6000851461207457600182611fda919061325c565b9150600a85611fe991906133f2565b6030611ff591906131d5565b60f81b818381518110612031577f4e487b7100000000000000000000000000000000000000000000000000000000600052603260045260246000fd5b60200101907effffffffffffffffffffffffffffffffffffffffffffffffffffffffffffff1916908160001a905350600a8561206d919061322b565b9450611fc5565b8093505050505b919050565b505050565b505050565b60006120ab8473ffffffffffffffffffffffffffffffffffffffff16612221565b15612214578373ffffffffffffffffffffffffffffffffffffffff1663150b7a026120d46116ef565b8786866040518563ffffffff1660e01b81526004016120f69493929190612cbd565b602060405180830381600087803b15801561211057600080fd5b505af192505050801561214157506040513d601f19601f8201168201806040525081019061213e919061269b565b60015b6121c4573d8060008114612171576040519150601f19603f3d011682016040523d82523d6000602084013e612176565b606091505b506000815114156121bc576040517f08c379a00000000000000000000000000000000000000000000000000000000081526004016121b390612e3b565b60405180910390fd5b805181602001fd5b63150b7a0260e01b7bffffffffffffffffffffffffffffffffffffffffffffffffffffffff1916817bffffffffffffffffffffffffffffffffffffffffffffffffffffffff191614915050612219565b600190505b949350505050565b6000808273ffffffffffffffffffffffffffffffffffffffff163b119050919050565b6040518060a0016040528060008152602001600073ffffffffffffffffffffffffffffffffffffffff16815260200160001515815260200161228461231d565b8152602001612291612337565b81525090565b8280546122a390613346565b90600052602060002090601f0160209004810192826122c5576000855561230c565b82601f106122de57805160ff191683800117855561230c565b8280016001018555821561230c579182015b8281111561230b5782518255916020019190600101906122f0565b5b5090506123199190612375565b5090565b604051806040016040528060008152602001600081525090565b6040518060800160405280600073ffffffffffffffffffffffffffffffffffffffff1681526020016060815260200160008152602001600081525090565b5b8082111561238e576000816000905550600101612376565b5090565b60006123a56123a0846130e6565b6130c1565b9050828152602081018484840111156123bd57600080fd5b6123c8848285613304565b509392505050565b60006123e36123de84613117565b6130c1565b9050828152602081018484840111156123fb57600080fd5b612406848285613304565b509392505050565b60008135905061241d8161399a565b92915050565b600081359050612432816139b1565b92915050565b600081359050612447816139c8565b92915050565b60008151905061245c816139c8565b92915050565b600082601f83011261247357600080fd5b8135612483848260208601612392565b91505092915050565b600082601f83011261249d57600080fd5b81356124ad8482602086016123d0565b91505092915050565b6000813590506124c5816139df565b92915050565b6000602082840312156124dd57600080fd5b60006124eb8482850161240e565b91505092915050565b6000806040838503121561250757600080fd5b60006125158582860161240e565b92505060206125268582860161240e565b9150509250929050565b60008060006060848603121561254557600080fd5b60006125538682870161240e565b93505060206125648682870161240e565b9250506040612575868287016124b6565b9150509250925092565b6000806000806080858703121561259557600080fd5b60006125a38782880161240e565b94505060206125b48782880161240e565b93505060406125c5878288016124b6565b925050606085013567ffffffffffffffff8111156125e257600080fd5b6125ee87828801612462565b91505092959194509250565b6000806040838503121561260d57600080fd5b600061261b8582860161240e565b925050602061262c85828601612423565b9150509250929050565b6000806040838503121561264957600080fd5b60006126578582860161240e565b9250506020612668858286016124b6565b9150509250929050565b60006020828403121561268457600080fd5b600061269284828501612438565b91505092915050565b6000602082840312156126ad57600080fd5b60006126bb8482850161244d565b91505092915050565b6000806000606084860312156126d957600080fd5b600084013567ffffffffffffffff8111156126f357600080fd5b6126ff8682870161248c565b9350506020612710868287016124b6565b9250506040612721868287016124b6565b9150509250925092565b60006020828403121561273d57600080fd5b600061274b848285016124b6565b91505092915050565b60006127608383612c31565b60408301905092915050565b61277581613290565b82525050565b61278481613290565b82525050565b600061279582613158565b61279f8185613186565b93506127aa83613148565b8060005b838110156127db5781516127c28882612754565b97506127cd83613179565b9250506001810190506127ae565b5085935050505092915050565b6127f1816132a2565b82525050565b612800816132a2565b82525050565b600061281182613163565b61281b8185613197565b935061282b818560208601613313565b612834816134df565b840191505092915050565b600061284a8261316e565b61285481856131a8565b9350612864818560208601613313565b61286d816134df565b840191505092915050565b60006128838261316e565b61288d81856131b9565b935061289d818560208601613313565b6128a6816134df565b840191505092915050565b60006128bc8261316e565b6128c681856131ca565b93506128d6818560208601613313565b80840191505092915050565b60006128ef600c836131b9565b91506128fa826134f0565b602082019050919050565b60006129126032836131b9565b915061291d82613519565b604082019050919050565b60006129356025836131b9565b915061294082613568565b604082019050919050565b6000612958601c836131b9565b9150612963826135b7565b602082019050919050565b600061297b6024836131b9565b9150612986826135e0565b604082019050919050565b600061299e6019836131b9565b91506129a98261362f565b602082019050919050565b60006129c1602c836131b9565b91506129cc82613658565b604082019050919050565b60006129e4600c836131b9565b91506129ef826136a7565b602082019050919050565b6000612a076038836131b9565b9150612a12826136d0565b604082019050919050565b6000612a2a602a836131b9565b9150612a358261371f565b604082019050919050565b6000612a4d6029836131b9565b9150612a588261376e565b604082019050919050565b6000612a706034836131b9565b9150612a7b826137bd565b604082019050919050565b6000612a936020836131b9565b9150612a9e8261380c565b602082019050919050565b6000612ab6602c836131b9565b9150612ac182613835565b604082019050919050565b6000612ad9602f836131b9565b9150612ae482613884565b604082019050919050565b6000612afc6021836131b9565b9150612b07826138d3565b604082019050919050565b6000612b1f6031836131b9565b9150612b2a82613922565b604082019050919050565b6000612b42600d836131b9565b9150612b4d82613971565b602082019050919050565b600060c083016000830151612b706000860182612c60565b506020830151612b83602086018261276c565b506040830151612b9660408601826127e8565b506060830151612ba96060860182612c31565b50608083015184820360a0860152612bc18282612bce565b9150508091505092915050565b6000608083016000830151612be6600086018261276c565b5060208301518482036020860152612bfe828261283f565b9150506040830151612c136040860182612c60565b506060830151612c266060860182612c60565b508091505092915050565b604082016000820151612c476000850182612c60565b506020820151612c5a6020850182612c60565b50505050565b612c69816132fa565b82525050565b612c78816132fa565b82525050565b6000612c8a82856128b1565b9150612c9682846128b1565b91508190509392505050565b6000602082019050612cb7600083018461277b565b92915050565b6000608082019050612cd2600083018761277b565b612cdf602083018661277b565b612cec6040830185612c6f565b8181036060830152612cfe8184612806565b905095945050505050565b6000608082019050612d1e600083018761277b565b8181036020830152612d308186612878565b9050612d3f6040830185612c6f565b612d4c6060830184612c6f565b95945050505050565b6000604082019050612d6a600083018561277b565b612d776020830184612c6f565b9392505050565b60006020820190508181036000830152612d98818461278a565b905092915050565b6000602082019050612db560008301846127f7565b92915050565b60006020820190508181036000830152612dd58184612878565b905092915050565b60006060820190508181036000830152612df78186612878565b9050612e066020830185612c6f565b612e136040830184612c6f565b949350505050565b60006020820190508181036000830152612e34816128e2565b9050919050565b60006020820190508181036000830152612e5481612905565b9050919050565b60006020820190508181036000830152612e7481612928565b9050919050565b60006020820190508181036000830152612e948161294b565b9050919050565b60006020820190508181036000830152612eb48161296e565b9050919050565b60006020820190508181036000830152612ed481612991565b9050919050565b60006020820190508181036000830152612ef4816129b4565b9050919050565b60006020820190508181036000830152612f14816129d7565b9050919050565b60006020820190508181036000830152612f34816129fa565b9050919050565b60006020820190508181036000830152612f5481612a1d565b9050919050565b60006020820190508181036000830152612f7481612a40565b9050919050565b60006020820190508181036000830152612f9481612a63565b9050919050565b60006020820190508181036000830152612fb481612a86565b9050919050565b60006020820190508181036000830152612fd481612aa9565b9050919050565b60006020820190508181036000830152612ff481612acc565b9050919050565b6000602082019050818103600083015261301481612aef565b9050919050565b6000602082019050818103600083015261303481612b12565b9050919050565b6000602082019050818103600083015261305481612b35565b9050919050565b600060208201905081810360008301526130758184612b58565b905092915050565b60006020820190506130926000830184612c6f565b92915050565b60006040820190506130ad6000830185612c6f565b6130ba6020830184612c6f565b9392505050565b60006130cb6130dc565b90506130d78282613378565b919050565b6000604051905090565b600067ffffffffffffffff821115613101576131006134b0565b5b61310a826134df565b9050602081019050919050565b600067ffffffffffffffff821115613132576131316134b0565b5b61313b826134df565b9050602081019050919050565b6000819050602082019050919050565b600081519050919050565b600081519050919050565b600081519050919050565b6000602082019050919050565b600082825260208201905092915050565b600082825260208201905092915050565b600082825260208201905092915050565b600082825260208201905092915050565b600081905092915050565b60006131e0826132fa565b91506131eb836132fa565b9250827fffffffffffffffffffffffffffffffffffffffffffffffffffffffffffffffff038211156132205761321f613423565b5b828201905092915050565b6000613236826132fa565b9150613241836132fa565b92508261325157613250613452565b5b828204905092915050565b6000613267826132fa565b9150613272836132fa565b92508282101561328557613284613423565b5b828203905092915050565b600061329b826132da565b9050919050565b60008115159050919050565b60007fffffffff0000000000000000000000000000000000000000000000000000000082169050919050565b600073ffffffffffffffffffffffffffffffffffffffff82169050919050565b6000819050919050565b82818337600083830152505050565b60005b83811015613331578082015181840152602081019050613316565b83811115613340576000848401525b50505050565b6000600282049050600182168061335e57607f821691505b6020821081141561337257613371613481565b5b50919050565b613381826134df565b810181811067ffffffffffffffff821117156133a05761339f6134b0565b5b80604052505050565b60006133b4826132fa565b91507fffffffffffffffffffffffffffffffffffffffffffffffffffffffffffffffff8214156133e7576133e6613423565b5b600182019050919050565b60006133fd826132fa565b9150613408836132fa565b92508261341857613417613452565b5b828206905092915050565b7f4e487b7100000000000000000000000000000000000000000000000000000000600052601160045260246000fd5b7f4e487b7100000000000000000000000000000000000000000000000000000000600052601260045260246000fd5b7f4e487b7100000000000000000000000000000000000000000000000000000000600052602260045260246000fd5b7f4e487b7100000000000000000000000000000000000000000000000000000000600052604160045260246000fd5b6000601f19601f8301169050919050565b7f496e76616c6964206e616d650000000000000000000000000000000000000000600082015250565b7f4552433732313a207472616e7366657220746f206e6f6e20455243373231526560008201527f63656976657220696d706c656d656e7465720000000000000000000000000000602082015250565b7f4552433732313a207472616e736665722066726f6d20696e636f72726563742060008201527f6f776e6572000000000000000000000000000000000000000000000000000000602082015250565b7f4552433732313a20746f6b656e20616c7265616479206d696e74656400000000600082015250565b7f4552433732313a207472616e7366657220746f20746865207a65726f2061646460008201527f7265737300000000000000000000000000000000000000000000000000000000602082015250565b7f4552433732313a20617070726f766520746f2063616c6c657200000000000000600082015250565b7f4552433732313a206f70657261746f7220717565727920666f72206e6f6e657860008201527f697374656e7420746f6b656e0000000000000000000000000000000000000000602082015250565b7f496e76616c6964207465726d0000000000000000000000000000000000000000600082015250565b7f4552433732313a20617070726f76652063616c6c6572206973206e6f74206f7760008201527f6e6572206e6f7220617070726f76656420666f7220616c6c0000000000000000602082015250565b7f4552433732313a2062616c616e636520717565727920666f7220746865207a6560008201527f726f206164647265737300000000000000000000000000000000000000000000602082015250565b7f4552433732313a206f776e657220717565727920666f72206e6f6e657869737460008201527f656e7420746f6b656e0000000000000000000000000000000000000000000000602082015250565b7f4120737562736372697074696f6e2074656d706c61746520776974682074686960008201527f7320494420646f6573206e6f742065786973742e000000000000000000000000602082015250565b7f4552433732313a206d696e7420746f20746865207a65726f2061646472657373600082015250565b7f4552433732313a20617070726f76656420717565727920666f72206e6f6e657860008201527f697374656e7420746f6b656e0000000000000000000000000000000000000000602082015250565b7f4552433732314d657461646174613a2055524920717565727920666f72206e6f60008201527f6e6578697374656e7420746f6b656e0000000000000000000000000000000000602082015250565b7f4552433732313a20617070726f76616c20746f2063757272656e74206f776e6560008201527f7200000000000000000000000000000000000000000000000000000000000000602082015250565b7f4552433732313a207472616e736665722063616c6c6572206973206e6f74206f60008201527f776e6572206e6f7220617070726f766564000000000000000000000000000000602082015250565b7f496e76616c696420707269636500000000000000000000000000000000000000600082015250565b6139a381613290565b81146139ae57600080fd5b50565b6139ba816132a2565b81146139c557600080fd5b50565b6139d1816132ae565b81146139dc57600080fd5b50565b6139e8816132fa565b81146139f357600080fd5b5056fea2646970667358221220a77656c7f871627c677f763252c58a10cc9c93003e93f331070bc70f42c9067464736f6c63430008040033",
  "linkReferences": {},
  "deployedLinkReferences": {}
}